:020000040007F3
:10800000786D0020498407005184070053840700DD
:1080100055840700578407005984070000000000BA
:108020000000000000000000000000005B8407006A
:108030005D840700000000005F8407006184070082
:108040006384070063840700959B0700638407002F
:108050006384070063840700638407006384070068
:108060006384070063840700638407006384070058
:10807000638407004998070063840700638407004E
:10808000A59B0700AD980700638407006384070081
:10809000D198070063840700D59807006384070020
:1080A0006384070063840700638407006384070018
:1080B00063840700638407000000000000000000E4
:1080C00063840700638407006384070063840700F8
:1080D00063840700638407006384070000000000D6
:1080E0000000000000000000000000000000000090
:1080F0000000000000000000000000000000000080
:10810000000000000000000000000000000000006F
:10811000000000000000000000000000000000005F
:10840000DFF80CD000F072F8004800473DB00700DC
:10841000786D0020056885F308884068FF2464B201
:10842000EFF30585002D01D1A646004725460646F7
:1084300021273FBAF0B40024002500260027F0B41D
:10844000F92040B200470000064880470648004730
:10845000FEE7FEE7FEE7FEE7FEE7FEE7FEE7FEE7F4
:10846000FEE7FEE7F998070001840700202A04DBF5
:10847000203A00FA02F1002070479140C2F1200337
:1084800020FA03F319439040704740EA01039B0729
:1084900003D009E008C9121F08C0042AFAD203E079
:1084A00011F8013B00F8013B521EF9D27047D2B2DD
:1084B00001E000F8012B491EFBD270470022F6E7CD
:1084C00010B513460A4604461946FFF7F0FF20464A
:1084D00010BD30B504460020034600E05B1C93420B
:1084E00003D2E05CCD5C401BF8D030BD064C074D9C
:1084F00006E0E06840F0010394E807009847103474
:10850000AC42F6D3FFF780FFC8DE0700E8DE0700C5
:108510002DE9F0438BB01446129D15F9046B0096BB
:108520001F46804689462B460246214602A800F097
:10853000BDFC02A9129A084600F0A8FC129B02AAF0
:108540004146404600F092FC129B02AA214620467A
:1085500000F08CFC2B464A4639463846009600F01F
:10856000A5FC129A394602A800F090FC02A92B46FD
:1085700042460846009600F099FC02A92B46224686
:108580000846009600F092FC2B46424621462046C3
:10859000009600F08BFC129B22464946484600F0AC
:1085A00065FC2B4602AA41462046009600F07EFC60
:1085B000129B22463946384600F058FC2B464A4664
:1085C00039463846009600F071FC324602A9204632
:1085D00000F032FE0BB0BDE8F083F0B5154689B06F
:1085E0001C4607460E461A462946684600F04EFCD1
:1085F00023466A463946384600F038FC23462A4668
:108600006946684600F032FC23466A4631463046E9
:1086100000F02CFC09B0F0BD8B1802448B4204D052
:1086200013F8010D02F8010DF8E770472DE9F04746
:10863000B3F9025089460824E91D1F3591FBF4F473
:108640002021944295FBF1F54FFA85F828BF144696
:108650001F464146064600F071FA22464946FFF79A
:10866000DBFFB7F90230E4009C4220D9E41A06EBA4
:1086700085010023C4F120008E4208D251F8042D58
:1086800022FA04F52B430B6002FA00F3F4E72437D7
:1086900042463146384600F05DFA012807D043468D
:1086A0003A4631463046BDE8F04700F019BFBDE814
:1086B000F0872DE9F04793F9006092B004468946AF
:1086C000104631461546984600F06CFA002840F0F6
:1086D00098804246494602A800F0D8FB434602AAC9
:1086E00021460AA800F0C2FB02A90846424600F053
:1086F000CDFB43462A464946484600F0B7FB08F101
:10870000040742462946284600F0C0FB3B462A465D
:1087100021462046009600F0F7FA3B462A462946B5
:108720002846009600F0F0FA3B462A4621462846A5
:10873000009600F0BBFB43462A462146204600F047
:1087400095FB3B46224621462846009600F0DCFA7F
:108750003B4600962A462146204600F0D5FA23687B
:10876000DB0714D533463A462146204600F0B8F9D7
:1087700031468246204600F052FD06F18043013B1F
:1087800054F8230040EACA7044F8230003E031465D
:10879000204600F044FD42462146284600F076FB84
:1087A0003B460AAA29462846009600F07FFB3B4636
:1087B0000AAA29462846009600F078FB0AA908462E
:1087C0003B462A46009600F071FB43460AAA214622
:1087D000204600F04BFB02AA3B461046214600967D
:1087E00000F064FB32462946204600F025FD324663
:1087F0004946284600F020FD324602A9484600F0CE
:108800001BFD12B0BDE8F0870048704718DE070076
:108810002DE9F04FEDB01F46DDF8D8810590B8F98D
:10882000026098F9005020231F3696FBF3F676B2CB
:1088300006F1FF3924AB002443F829406CAB03EB6D
:1088400089034CA88A469346394698F9012043F893
:10885000804C43F8604CFFF7DFFE98F9012054A8E4
:10886000B918FFF7D9FE29464CA800F09BF9074636
:10887000002840F02781294654A800F093F903907E
:10888000002840F0218108F1240332464CA9184603
:10889000029300F05FF9012840F01881324654A994
:1088A000029800F057F90128069040F00F811CACA7
:1088B0000CAF3346029A54A9204600F03EFA039BBF
:1088C00047F829305A46514638464346FFF7AEFE30
:1088D00039463846029B0096224600F0B5FA0DF55F
:1088E000B879029B009622464CA914A800F0ACFA75
:1088F00048462A46059900F09FFCAB0009EB030AA5
:108900000793059BA900591808F1440B50462A46C5
:1089100000F092FC59462A4634A800F08DFCAB00CA
:108920000BEB03012A463CA800F086FC08F1040387
:10893000494634AA20460095049300F0B7FA5346FE
:108940004A463CA934A8CDF80080FFF7E1FD2B464C
:10895000049A2146204600F0F0F922465146484646
:108960004346FFF73AFE039B08933146059B0A9363
:108970003846CDF824B0CDF82C9000F032FC3146CA
:10898000814614A800F02DFC4845B8BF48461FFAA0
:1089900080F909F1FF3B0FFA8BFB5946384600F08E
:1089A000CFFD5946071C14A818BF012700F0C8FDC9
:1089B000002814BF022300231F430DF1200A2A467A
:1089C0005AF8277024A8394600F036FC0DF1B00B98
:1089D000AB00F9182A46584600F02EFC29462046DE
:1089E00000F0ACF8A9F10209069B23600FFA89F99F
:1089F0000DF1900AB9F1000F45DB43462246D8F845
:108A0000A47059465046B84749460CA800F098FD56
:108A10004946071C14A818BF012700F091FD002843
:108A200014BF022300231F4308AB53F827702FB352
:108A30002A46394634A800F0FFFB079B2A46F9185E
:108A40003CA800F0F9FB434622463CA934A8FFF7B6
:108A5000C4FD049B009534AA514644A800F026FAB0
:108A60005B4652463CA934A8CDF80080FFF750FD84
:108A7000434644AA2146204600F0F8F909F1FF399F
:108A80000FFA89F9B6E72B46049A2146204600F0F2
:108A900054F94346224659465046FFF79EFD32465A
:108AA0005146029800F056F8012805D03346029A44
:108AB0005146504600F014FD2A464CA9504600F09D
:108AC0005DF804E0204602E0384600E003986DB00F
:108AD000BDE8F08F00000000000000000000000072
:108AE000C3F10803DB0070B50133002403A500BF08
:108AF0005B1920C940CAAD1920C0184720C940CA17
:108B0000754120C020C940CA754120C020C940CA53
:108B1000754120C020C940CA754120C020C940CA43
:108B2000754120C020C940CA754120C020C940CA33
:108B3000754120C06441204670BD00BF002210B5C1
:108B4000144653B28B4204DA1BB2013240F8234080
:108B5000F7E710BD10B5013A52B2002A0ADB13B292
:108B600050F8234051F823309C4205D8F3D24FF0FF
:108B7000FF3010BD002010BD012010BD70B5013ABE
:108B800052B20023002A09DB15B2013A50F82560E1
:108B900051F825407440234352B2F3E7B3FA83F00F
:108BA000400970BD10B500231A465CB28C4204DA4D
:108BB00050F8244001332243F7E7B2FA82F040092B
:108BC00010BD00002DE9F04FA5B01C46039114AB79
:108BD0002146804610461746029300F002FB494B9F
:108BE000C0EB841005B22B40002BBEBF03F1FF3356
:108BF00063F01F030133202695FBF6F676B20FFAD9
:108C000083F904A83146FFF799FFB9F1000F30B29C
:108C100014DD04AB002203EB8000C9F120061346EB
:108C2000A34212D257F8231001FA09FE4EEA0202BB
:108C300040F8232021FA06F20133F1E704AB224683
:108C4000394603EB800000F0F7FA27B27B0001936E
:108C500004AB03EB870704F1FF3924AB012603EBD8
:108C60008909002D42DB24AB0022C6F101009646A3
:108C700003EB860A03EB8000019B51B299421BDA99
:108C80000FFA81FC5AF8883C53F82CB024AB03EB64
:108C9000810151F8803CC3EB0B03CEEB03039B45F2
:108CA00004D034BF4FF0010E4FF0000E50F8881C76
:108CB000013241F82C30DFE7CEEB06035E4221465D
:108CC00004A85E4100F0ABFA24AB03EB8403214619
:108CD00053F8802C59F8803C384643EAC273013D72
:108CE00049F8803C2DB200F09AFABAE724AB03EBC6
:108CF0008606224656F8881C404600F09DFA25B0AC
:108D0000BDE8F08F1F00008070B59DF910401E4631
:108D100023460546FFF7E4FE30B922462946304691
:108D2000FFF718FF012807D0234632462946284678
:108D3000BDE8704000F0D4BB70BDF0B50F46A1B0E7
:108D400006461946384615461C46FFF72BFF20B14C
:108D500021463046FFF7F2FE74E022463946684667
:108D600000F06AFA2246294608A800F065FA214672
:108D700010A8FFF7E3FE0123214618A81093FFF780
:108D8000DDFE224608A96846FFF7E4FE002854D01D
:108D9000009BDA0704D42146684600F040FA26E03A
:108DA000089BDB0704D4214608A800F038FA3EE00F
:108DB000002823461FDD08AA6946684600F090FB9C
:108DC0002146684600F02BFA224618A910A8FFF7A2
:108DD000C1FE002805DA10A923462A460846FFF7F7
:108DE0007FFE10A9234618AA084600F079FB224608
:108DF000294610A81EE008A96A46084600F070FB44
:108E0000214608A800F00BFA224610A918A8FFF77F
:108E1000A1FE002805DA18A923462A460846FFF7CE
:108E20005FFE18A9234610AA084600F059FB224607
:108E3000294618A800F066FCA3E7224610A9304690
:108E400000F0FAF921B0F0BD70B590B005469DF97B
:108E500050401E466846234600F03AF82346324604
:108E600069462846FFF7AEFE10B070BD30B51C460F
:108E700091B0054693F90030684600F029F8D4F81F
:108E8000AC3069462846984711B030BD30B514461D
:108E900091B0054692F90020684600F0DAF9D4F85E
:108EA000AC3069462846984711B030BD70B59DF981
:108EB00010401E462346054600F012FB38B12346FB
:108EC000324629462846BDE87040FFF709BE70BD0E
:108ED0002DE9F04F08B4F8CA04B451F8042BA3FBF1
:108EE000028940F8048B4FF0000AE4FB629A4FF0CD
:108EF000000BE5FB62AB4FF0000CE6FB62BC4FF0F1
:108F0000000EE7FB62CE51F8042B4FF00008E3FBA4
:108F1000628940F8048BE4FB629AE5FB62ABE6FBF6
:108F200062BCE7FB62CE51F8042B4FF00008E3FB74
:108F3000628940F8048BE4FB629AE5FB62ABE6FBD6
:108F400062BCE7FB62CE51F8042B4FF00008E3FB54
:108F5000628940F8048BE4FB629AE5FB62ABE6FBB6
:108F600062BCE7FB62CE51F8042B4FF00008E3FB34
:108F7000628940F8048BE4FB629AE5FB62ABE6FB96
:108F800062BCE7FB62CE40F8049B40F804AB40F8BB
:108F900004BB40F804CB40F804EB0CBC052B00F0FC
:108FA0001E810C68A0F11400A1F11401A2F11402B9
:108FB00052F804EB4FF0000550F8046BE4FB6E56DA
:108FC00052F804EB50F8047BE4FB6E6752F804EBB4
:108FD00050F8048BE4FB6E7852F804EB50F8049BD5
:108FE000E4FB6E8952F804EB50F804ABE4FB6E9A94
:108FF000A0F1140052F8044B51F804EB4FF0000CB0
:10900000E4FB6EC540F804CB51F804EBE4FB6E566C
:1090100040F8045B51F804EBE4FB6E6740F8046B26
:1090200051F804EBE4FB6E7840F8047B51F804EB54
:10903000E4FB6E8940F8048B51F804EBE4FB6E9A74
:10904000A0E80006062B00F0CA800C68A0F118000A
:10905000A1F11801A2F1180252F804EB4FF000053B
:1090600050F8046BE4FB6E5652F804EB50F8047BA6
:10907000E4FB6E6752F804EB50F8048BE4FB6E7867
:1090800052F804EB50F8049BE4FB6E8952F804EBB1
:1090900050F804ABE4FB6E9A52F804EB50F804BBB2
:1090A000E4FB6EABA0F1180052F8044B51F804EB4E
:1090B0004FF0000CE4FB6EC540F804CB51F804EB14
:1090C000E4FB6E5640F8045B51F804EBE4FB6E677A
:1090D00040F8046B51F804EBE4FB6E7840F8047B35
:1090E00051F804EBE4FB6E8940F8048B51F804EB73
:1090F000E4FB6E9A40F8049B51F804EBE4FB6EAB82
:10910000A0E8000C072B6AD008B40C68A0F11C0082
:10911000A1F11C01A2F11C0252F804EB4FF0000572
:1091200050F8046BE4FB6E5652F804EB50F8047BE5
:10913000E4FB6E6752F804EB50F8048BE4FB6E78A6
:1091400052F804EB50F8049BE4FB6E8952F804EBF0
:1091500050F804ABE4FB6E9A52F804EB50F804BBF1
:10916000E4FB6EAB52F804EB50F804CBE4FB6EBCAE
:10917000A0F11C0052F8044B51F804EB4FF000032F
:10918000E4FB6E3540F8043B51F804EBE4FB6E560B
:1091900040F8045B51F804EBE4FB6E6740F8046BA5
:1091A00051F804EBE4FB6E7840F8047B51F804EBD3
:1091B000E4FB6E8940F8048B51F804EBE4FB6E9AF3
:1091C00040F8049B51F804EBE4FB6EAB40F804ABB1
:1091D00051F804EBE4FB6EBCA0E8001808BCBDE845
:1091E000F08F013949B2002909DA013149B2A1B140
:1091F00001F18043013B50F82330002004E050F897
:109200002130002BEDD0F0E713B15B080130FBE714
:10921000013900EB411108B270470846704700EB76
:1092200081010023884206D251F8042D43EA5203FB
:109230000B60D307F6E7704730B5002463B2934262
:1092400006DA1BB2013451F8235040F82350F5E7F9
:1092500030BD2DE9F04FB1E8005E06B4AAFB09125B
:109260004FF00003EBFB69234FF00004ECFB693483
:109270004FF00005EEFB69454FF00006EBFB6A631B
:10928000ECFB6A344918524176415B41A9FB0978ED
:109290004FF0000949F1000918EB0108A0E880012E
:1092A000AAFB0A78574158EB0608A0E88001EEFBBC
:1092B0006A454FF0000A4AF1000A4FF00001ECFB4A
:1092C0006B14EEFB6B454FF00002EEFB6C255FEA82
:1092D00059094941644152416D4149F10009EBFB93
:1092E0006B3A1AEB010AA0E80804ACFB0C6A664171
:1092F0005AEB020AA0E84004AEFB0E6A6E415AEB3C
:10930000090AA0E8400406BC052A00F0E680A0F1A6
:109310001400A1F11401B1E8E043A5FB0E344FF0B5
:109320000005E6FB6E454FF00006E7FB6E564FF07A
:109330000007E8FB6E674FF00008E9FB6E784FF01E
:109340000009DB1864416D4176417F4158EB080804
:1093500059F1000950F804CB13EB0C0350F804CB7F
:1093600054EB0C0450F804CB55EB0C0550F804CB2F
:1093700056EB0C0650F804CB57EB0C0758F10008DD
:1093800059F10009A0F11400EEFB0E89A0E8F803E2
:10939000062A00F0A280A0F11800A1F11801B1E89E
:1093A000E047A5FB0E344FF00005E6FB6E454FF09D
:1093B0000006E7FB6E564FF00007E8FB6E674FF0C4
:1093C0000008E9FB6E784FF00009EAFB6E894FF068
:1093D000000ADB1864416D4176417F4158EB080873
:1093E00059EB09095AF1000A50F804CB13EB0C03AE
:1093F00050F804CB54EB0C0450F804CB55EB0C059F
:1094000050F804CB56EB0C0650F804CB57EB0C0786
:1094100050F804CB58EB0C0859F100095AF1000A36
:10942000A0F11800EEFB0E9AA0E8F807072A54D026
:10943000A0F11C00A1F11C01B1E8E04FA5FB0E3426
:109440004FF00005E6FB6E454FF00006E7FB6E5659
:109450004FF00007E8FB6E674FF00008E9FB6E78FD
:109460004FF00009EAFB6E894FF0000AEBFB6E9AA1
:109470004FF0000BDB1864416D4176417F4158EBA2
:10948000080859EB09095AEB0A0A5BF1000B50F87E
:1094900004CB13EB0C0350F804CB54EB0C0450F842
:1094A00004CB55EB0C0550F804CB56EB0C0650F8EA
:1094B00004CB57EB0C0750F804CB58EB0C0850F8D2
:1094C00004CB59EB0C095AF1000A5BF1000BA0F137
:1094D0001C00EEFB0EABA0E8F80FBDE8F08F00001B
:1094E000C3F10803DB0070B50133002403A500BFFE
:1094F0005B1920C940CAAD1B20C0184720C940CA0B
:10950000B54120C020C940CAB54120C020C940CAC9
:10951000B54120C020C940CAB54120C020C940CAB9
:10952000B54120C020C940CAB54120C020C940CAA9
:10953000B54120C06441B4FA84F0400970BD00BF59
:109540004A11012350F8220001F01F0103FA01F132
:1095500008407047F0B5082289B00C460646FFF770
:109560006BFECB6A03930B6B04934B6B05938B6B76
:109570000693CB6B0793002708236A466946684623
:10958000029701970097FFF7ABFA082305466A4652
:1095900031463046FFF7A4FA236B0393636B0493C1
:1095A000A36B0593E36B0693054408236A4669465B
:1095B00068460797FFF794FA082305446A46314640
:1095C0003046FFF78DFA236A0093636A0193A36A1A
:1095D0000293A36B0693E36B0793054408236A4643
:1095E00031463046059704970397FFF779FA636A87
:1095F0000093A36A0193E36AA26B0293636B0393E4
:1096000004920693E26B236A0592054407936A4627
:10961000082331463046FFF763FAE36A0093236B71
:109620000193636B0293236A0693A36A079305442D
:1096300008236A4631463046059704970397FFF79B
:109640004FFF236B0093636B0193A36B0293E36B58
:109650000393636A0693E36A07932D1A08236A4605
:109660003146304605970497FFF73AFF636B009346
:10967000A36B0193E36B0293236A0393636A0493DE
:10968000A36A0593236B07932D1A08236A46314674
:1096900030460697FFF724FFA36B0093E36B01931B
:1096A000636A0393A36A0493E36A0593636B079366
:1096B0002D1A08236A463146304602970697FFF76F
:1096C0000FFF2D1A16D508230D4A31463046FFF7F5
:1096D00007FA2D18F7D410E0082231460848FFF7A2
:1096E00039FA012809D00823054A31463046FFF7E8
:1096F000F7FE2D1A002DEFD0F5E709B0F0BD00BF41
:109700001CDE070070B5036813F001050646144619
:1097100005D013460A460146FFF7E2F90546214601
:109720003046FFF77CFD45B104F18042013A56F81E
:10973000223043F0004346F8223070BD2DE9F0415D
:1097400015468AB0044688462022002102A8FEF76A
:10975000B7FE2E1D95F9007003232A464146204688
:109760000293FFF793FB334602AA21462046009757
:10977000FFF79CFB2B46424621462046FFF776FB2F
:109780000097334605F1840221462046FFF7BCFAD4
:109790000AB0BDE8F08100F01F02012191404009AC
:1097A000800000F1E020C0F88012704700F01F0236
:1097B000012191404009800000F1E020C0F88011B3
:1097C000704700F01F02012191404009800000F124
:1097D000E020C0F80011704700F01F020121914005
:1097E0004009800000F1E020C0F80011704700F04F
:1097F0001F02012191404009800000F1E020C0F8E3
:10980000001270474907090E002806DA00F00F0021
:1098100000F1E02080F8141D704700F1E02080F88E
:1098200000147047BFF34F8F05480168054A01F4E3
:10983000E06111430160BFF34F8F00BFFDE70000FF
:109840000CED00E00400FA053EB500248DF8004060
:10985000684600F04DFC03F0F7FEC8B910480F4908
:109860000268AAB1D1F8081311F0010F10D00460FA
:10987000006802900B4800688DF8040001A90A48AE
:1098800002F02CFD084802F013FD08B102F02EFB97
:109890009DF8000000F050FC3EBD000000D00040EC
:1098A00000D1004008D50040C0DC07000748002177
:1098B000C0F84011C0F84411C0F84811C0F84C116C
:1098C000C0F80011C0F8041103F056BF00100140A9
:1098D00003F0CABE074810B5406830B18047002881
:1098E00007D0BDE8104000F003BABDE8104001F019
:1098F0008BBA10BDA03E0020F0B598480023021D91
:1099000001780125101D4FF08056062907D11478E3
:10991000240704D10478C4F30314032C02D00629CD
:1099200004D00FE08F4F8E4C7C670EE01478240734
:1099300008D10478C4F30314032C06D0042C04D0FB
:10994000052C02D0062907D00EE0D6F84442864FF7
:10995000C4F342343C6002E01478240704D1047854
:10996000C4F30314032C02D0062906D011E07F4C67
:10997000276827F0807727600EE01478240708D145
:109980000478C4F30314032C06D0042C04D0052C53
:1099900002D006290AD011E04FF08044C4F80C31FF
:1099A000C4F81031704C241F236002E0147824079F
:1099B00004D10478C4F30314032C02D0062905D083
:1099C0000CE0694F032464373C600AE014782407F4
:1099D00004D10478C4F30314032C02D006290DD05B
:1099E00014E0634F05243C60614C78342560604C82
:1099F000083423603F243F1D3C6002E014782407B4
:109A000004D10478C4F30314052C02D0062957D0DE
:109A100068E058490968584A11605649091D0968A3
:109A2000121D1160534908310968121D1160514916
:109A30000C310968121D11604E4910310968121D60
:109A400011604C4914310968121D116049491831DF
:109A50000968494A2032116046491C310968121DC3
:109A60001160444920310968121D116041492431B7
:109A70000968121D11603F4928310968121D1160E3
:109A80003C492C310968121D11603A49303109688E
:109A9000394A40321160374934310968121D11606A
:109AA000344938310968121D116032493C31096866
:109AB000121D11602F4940310968121D116002E02A
:109AC000117809070ED10078C0F30310032803D0E2
:109AD000042801D0052805D1D6F85802274900F0FE
:109AE0004F00086021487438016841F4700101603A
:109AF000BFF34F8FBFF36F8F4FF01021D1F80002EB
:109B0000002803DBD1F80402002822DA1C4A156081
:109B10001C480468002CFCD01524C1F800420568DC
:109B2000002DFCD0C1F8044201680029FCD013606C
:109B300001680029FCD0BFF34F8F0C48F038016852
:109B4000114A01F4E06111430160BFF34F8F00BF80
:109B5000FDE70F490D480860F0BD0000E00F00F080
:109B60000DF0ADBA00C007403C050040FCED00E040
:109B7000105600400404001020C50040E40E0040D0
:109B800004E5014000E401400400FA050090D00320
:109B9000B43E00200149024803F0B8BEC84C002082
:109BA00000200040094882B0D0F804034FF00001C3
:109BB00010F0010F07D006480160006800900548CA
:109BC000406802B0004702B070470000000001404A
:109BD00000010140503E002002E008C8121F08C1E9
:109BE000002AFAD170477047002001E001C1121F1E
:109BF000002AFBD1704700000121202803DA8140B0
:109C00000548014003E0402802DA2038814009B1CC
:109C10000120704700207047FC06FFBC86B00B2176
:109C2000ADF8141002218DF8001001228DF80120EA
:109C30008DF8020003208DF803008DF804105920E0
:109C40008DF80500FE208DF8060005A90DF109002C
:109C50007DDF002818D1BDF814000B2808D8411C5E
:109C60008DF80710092109308DF8081080B206E040
:109C70000C208DF8070008208DF808001420C1B2D0
:109C800000231A46684672DF06B070477FB5164D4E
:109C9000287A800702D5002004B070BD002400940B
:109CA0000194029406200394FFF7B8FF0028F3D133
:109CB0008DF808402820ADF80A008DF80040019486
:109CC000ADF80C40684673DF0028E5D14FF0A041A5
:109CD0004FF08050C1F80C051E2002F0A0FAA868D1
:109CE00040F00200A860D6E7383E0020FFF79AFD5A
:109CF000FFF798FD10B58268C368934203D000F067
:109D000063FF002010BD052010BD29B112B1531E04
:109D1000134203D0092070470E20704701608380F2
:109D200000218160C1600846704710B58268C36831
:109D30009A1A83889A4203D800F050FF002010BD81
:109D4000042010BD2DE9F84F254C814692466088CD
:109D50000E46814241D800274FF6FF788DF80070FB
:109D6000684600F0C5F922786078A188884201DA57
:109D7000401C00E00020C0B2904204D19DF80000D9
:109D800000F0DAF927E065786078884201DA401C53
:109D900000E0002060709DF8000000F0CDF945451E
:109DA00019D0A068B9F1000F40F835A00DD066B108
:109DB0006188E068324605FB01004946FEF765FB15
:109DC000A06800EBC500868002E000EBC50087803C
:109DD0000020BDE8F88F0420FBE70920F9E7000028
:109DE0005C3E002070B5114E0F4D3560104C03E005
:109DF000401C00E00020207020786178814211D062
:109E0000356022786188E068A36802FB010003EBFB
:109E1000C20153F83220898890472078A18888426F
:109E2000E8DAE5E770BD00003546526E00060140F5
:109E30005C3E002030B5CB0008339DB293074FF055
:109E4000000401D0072030BD044B9A602A44DA6038
:109E50005C701C7058809980002030BD5C3E0020F2
:109E6000074B5B6823B12AB120B10068037C1BB1AA
:109E700008207047072070474174426100207047F6
:109E80007C3E002010B50446082902D00020FFF7D0
:109E90002FFFD4E90010BDE8104008471CB5044A64
:109EA000CDE9000108216846FFF74CFF1CBD00000A
:109EB000859E07002DE9F0470746984614468946D7
:109EC00090074FF0000526D12CB303F043F9134E51
:109ED00006F11000C6F80C800570457080F80290FD
:109EE00044607560357075701420FFF754FC0721CD
:109EF0001420FFF787FC1420FFF763FC0848076075
:109F000007211120FFF77EFC0548001F0068B060A4
:109F10000020BDE8F0870720FBE700006C3E002032
:109F2000081501402DE9FC47DFF87890D9F8043096
:109F300073B368B3052902D20720BDE8FC874369E3
:109F400033B3437C012B25D00027044600258846E7
:109F500016468DF80050684600F0CAF801A803F0D4
:109F60008BFDC8B1012101700F4944600968C0E947
:109F70000218C0E904769DF8040089F801009DF8F4
:109F8000000000F0D9F81420FFF731FC2846D4E790
:109F90000820D2E70F46D8E704259DF8000000F01E
:109FA000CBF8F3E77C3E00200415014006494968E0
:109FB00039B130B1416921B100210174022103F0AE
:109FC000B7BB0820704700007C3E002070B50A4EE9
:109FD00001460A48B578FFF78DFE04464DB10020D2
:109FE000B070711C0122C81D01F0D2FF08B1FFF74B
:109FF0007FFE204670BD0000903E0020584D00209E
:10A00000F0B5284E89B01F460D00044672603BD063
:10A01000A888296882B22448FFF777FE002834D147
:10A02000A889A96882B220481030FFF76EFE002888
:10A030002BD120221D496846FEF727FA6069069059
:10A04000207C00B101208DF814008DF81C70607C1C
:10A0500000B10E208DF81500E0680290A068039012
:10A0600020680190606800900E48114A69460830E7
:10A0700001F046FF002808D1B0702068401C04D0D1
:10A080009DF81D0018B106E0072009B0F0BD054895
:10A09000083001F0B5FF03490122491CC81D01F039
:10A0A00077FFF2E7903E0020584D0020D4DD0700F6
:10A0B00055D8070010B501460B48FFF736FE0400DF
:10A0C00010D10A4802F04CF860B90849064808392E
:10A0D000FFF710FE30B9054901220839034801F0A5
:10A0E000EDFF0446204610BD684D0020983E00203C
:10A0F00030B5EFF3108172B60D4A9468012324B194
:10A100000370002900D162B630BD93604FF0E023A8
:10A11000D3F88051074C25401560C3F88041D3F82F
:10A12000844154605A17C3F8842100220270E8E782
:10A13000E44C0020FC06FFBC0B498A68002A11D0C1
:10A1400000280FD1EFF3108072B60B684FF0E022B9
:10A15000C2F800314B68C2F8043100228A6000283E
:10A1600000D162B670470000E44C00202DE9F041B8
:10A17000064608680C46411C4FF0A0474FF0010509
:10A1800006D005FA00F1C7F80815206802F03DF87E
:10A190006068411C02D0002102F026F83168A069F5
:10A1A000C1F82405607D217D32680843C2F86C0542
:10A1B000D4E900123068C0F80C15C0F81425207DD1
:10A1C000012815D1A068411C02D0002102F00CF832
:10A1D000E068411C05D08540C7F80855E06802F0EA
:10A1E00014F8D4E902123068C0F80825C0F8101538
:10A1F000BDE8F08170B5054601461C220F48FEF708
:10A2000044F90F4C00262670286830B1016861605F
:10A210004068A060201D7ADF02E00948001D7BDF56
:10A2200000280AD14FF6FF7060806670BDE870406C
:10A23000044A00210448FFF713BE70BD8847002080
:10A24000243E002019DA070058DC070070B51E4CC8
:10A25000068800231B49E289102E15D01B4D112EB4
:10A260001CD0122E29D0502E17D130F8061F914243
:10A2700013D14189022910D10C3000F0E4F888B1E3
:10A28000BDE8704000F0BEB984884C800469CC60A1
:10A29000406908614B70002AF2D070BD4FF6FF7024
:10A2A00048804B702868FFF781FE0028F5D0A1692F
:10A2B0000029F2D0BDE8704008478268CA60C068D3
:10A2C0000861DDE7243E00208847002058DC0700B5
:10A2D00001480068FFF76ABE58DC070030B585B05A
:10A2E00004002AD0164D4FF6FF7022462880012028
:10A2F0008DF812004FF65960ADF8100004A9012046
:10A30000A0DF002817D10F4B0FCB8DE80F00A11C49
:10A31000684663DF00280ED1204600F0C1FB00280C
:10A3200009D1204600F080FA002804D1A86840F046
:10A330000100A860002005B030BD0E20FBE7000042
:10A34000383E00205CDC070070B5144C0025A06886
:10A35000410701D5002070BD40F00400A060104806
:10A3600000F00AFF2088A0F57F41FF3904D01321B7
:10A3700076DF0500EFD10CE0207A800709D574DF85
:10A380000028E8D11C2001F04AFFA06840F002003C
:10A39000A060FFF79DFF284670BD0000383E0020FA
:10A3A000C0D4010000B587B01C2001F026FF1E209C
:10A3B00001F023FF1C2001F032FF1E2001F02FFFCF
:10A3C000012000F045F800282BD1174803F0D0F801
:10A3D000002826D100F0E2FC002822D11348FFF724
:10A3E0007DFF00281DD11C216846FEF767F840F666
:10A3F000CD4001904FF48040029003208DF80C0076
:10A400000020ADF80E008DF810000948069068464F
:10A41000FFF7F0FE002804D107B05DF804EBFFF76A
:10A4200035BC07B000BD000035A40700F44700208C
:10A4300001A6070010B50446FFF708FF2046BDE857
:10A44000104001F0AFBF007800F00100704700003D
:10A4500000B589B000218DF81C108DF81F10102157
:10A460008DF81D1002218DF81E1018B101F070FB3F
:10A47000002819D10D4813DF002815D10C4B5022AC
:10A480000C4907A803F0B0F808B1FFF731FC01212F
:10A490006A46084603F080F8002805D11720ADF879
:10A4A0001000684603F06EF809B000BD0080070098
:10A4B000D5D50700A44700200249085C002101F01F
:10A4C000B5BE000055DC07000249085C012101F01F
:10A4D000ADBE000055DC07007CB50024084E2546C3
:10A4E0000122305D009500231146019501F058FED0
:10A4F000641C022CF4D3BDE87C4000F003B80000DB
:10A5000055DC070010B500242046FFF7D5FF641C7A
:10A51000022CF9D310BD10B543689C18446021B9D2
:10A5200005E013F8010B01F8010B521EF9D20120CE
:10A5300010BD000038B10549814204D80449814268
:10A5400001D901207047002070470000B83E00206C
:10A55000C83E00202DE9F05F26484168F1B3DFF8DE
:10A5600098B00E688146DBF8004087688078E11B70
:10A5700021F07F45ED1CB0B9DFF880804FF48030CA
:10A58000C8F84403C8F804031120FFF704F91120A8
:10A59000FFF717F94FF0010AC8F800A02F2000F0CC
:10A5A00077FE89F802A0B54200D23546124BE81971
:10A5B0003C3320F07F401860DBF800105A46091B3E
:10A5C00021F07F41001B20F07F40C91C81420FD940
:10A5D000106818602F2000F05BFE00E004E0BDE88A
:10A5E000F05F1120FFF703B9BDE8F05F02F0B2BDE4
:10A5F000BDE8F09F6C3E00200415014000100140B2
:10A60000FFF776BBF8B5134800F03CFC114D00266F
:10A61000114C0C3D30B16169B9B101208DF80000D9
:10A62000684611E0287820B1616971B18DF8006049
:10A63000F6E7687858B1A168084800220068FFF77B
:10A6400071FC10B1A16901B188472E70F8BD616835
:10A65000F2E70000303E00208847002058DC070069
:10A66000F0B54FF0FF3622B11268D24300230A4DF5
:10A670000DE03246FAE7C45C62400824D70700D0F8
:10A6800037462F4087EA5202641EF7D15B1C8B428B
:10A69000F1D3D043F0BD00002083B8EDF0B51469CC
:10A6A00006468DB020681546271DE0B1022920D04E
:10A6B0000A2000906B4609AA304602F094FC00285C
:10A6C0000FD009A901A8009A02F068FB01AE96E834
:10A6D0000F0005AE86E80F00236869683A4605A8B2
:10A6E00098470DB0F0BD0DB03046BDE8F04002F027
:10A6F000C9BB6946304602F05BFB0028F1D02368F5
:10A7000069683A46684698470028EAD002980028C7
:10A71000F5D1019870600120E3E753685B7813F08E
:10A72000C00303D0402B03D00020704700F002B8D4
:10A73000FFF7B4BF2DE9FF410B46516806461446AA
:10A740004878334D00F00F0210F0300055F82250D9
:10A7500006D0102806D0202808D0302856D13EE058
:10A7600022694DE061690120087047E0022B28D181
:10A77000042A26D84FF0010869463046676902F07E
:10A7800017FB00281AD009E00B79226913FB00227D
:10A790006846A84770B13878401C3870029820B1DC
:10A7A000616838784A799042EED3019870600298D7
:10A7B00060BB02E04FF00008F7E7404604B0BDE898
:10A7C000F081D4E904300F79027817FB023349791C
:10A7D0008A421BD2521C02701A46616810E0087847
:10A7E0006169072A087009D1606801792069FDF75D
:10A7F00065FE60682169806802F0F5FA2269616887
:10A8000004B03046AC46BDE8F04160470020D5E7D3
:10A81000F4DD070010B5034800F0F4FCBDE810407B
:10A82000FFF7E0BAA086010010B58EB004461C21E7
:10A830006846FDF743FE142108A8FDF73FFE9DF88A
:10A840000010002041F0180107908DF80010A17849
:10A850008DF836100121ADF834109DF81C1004F16C
:10A860000C0321F0FF018DF81C109DF81D1008AAA3
:10A8700021F00F01491C21F0F00110318DF81D105D
:10A880009DF81E1021F00601891C41F011018DF880
:10A890001E100DA9089107A909911721ADF82C10D8
:10A8A0000C9020886946A2DF0EB010BD0248816876
:10A8B000491E816070470000003E00201FB50E4811
:10A8C00000F15C01826B684602F068FA0B489DE873
:10A8D0000E0080E80E00094909480B4AC860094982
:10A8E0000020086048600949044801F0F4FF00288E
:10A8F00000D0012004B010BD3C4B00205444002087
:10A9000005CC07001C3E0020C83E0020D0DB07001D
:10A910002DE9F0411F461600054600F104044FF0F2
:10A92000000127D037B394F85F0018B194F86000A5
:10A9300001281FD0207AE8B1E06834281AD100201D
:10A940004FF44053227C13E004EB800CB3F80CE08E
:10A95000DCF814C0F4450AD194F825004B4A60B1E4
:10A96000012813D002280DD0032803D10AE0401C8F
:10A970008242E9DC0A20BDE8F08121780029F9D083
:10A98000916803E021780029F4D0D16820B1022831
:10A9900006D0032807D103E060688842EAD302E0CA
:10A9A00060688842E6D995F870000028E2D13948FD
:10A9B000374903460160202141603A46314605206F
:10A9C00000F09DFB0028D5D1314895F8712005F1A4
:10A9D00072012030FDF759FD2E482D4908382031ED
:10A9E000016095F87110416003462A4A2A49042003
:10A9F00000F0ABFB08B10520BDE7264D00201C3D53
:10AA0000286194F8251041B3012933D02348022945
:10AA1000C0F5FC2027D00329ACD194F82C100029D4
:10AA2000A8D094F826100029A4D0A26A216B53184C
:10AA30002B6132B329B381420DD8202204F13F01AA
:10AA40001348FDF722FD2869D8B1124A0021103AB7
:10AA500000F028FFB8B104208DE794F834000028F6
:10AA600088D0A06B0BE094F82C10002982D0216BC9
:10AA70002961E0E794F82600002885D0A06A2861C3
:10AA8000DBE7032077E7012075E700003C4B00205F
:10AA9000F44300201C3E002034DC07000080070047
:10AAA00010B58EB004461C216846FDF707FD142141
:10AAB00008A8FDF703FD9DF80010002041F00401F7
:10AAC00007908DF80010A1788DF836100221ADF8AE
:10AAD00034109DF81C1008AA21F0FF018DF81C10FD
:10AAE0009DF81D1021F00F01491C21F0F0011031DB
:10AAF0008DF81D109DF81E1021F00601891C41F0F3
:10AB000001018DF81E100DA9089107A909911421C2
:10AB1000ADF82C100C902088231D6946A2DF0EB0E2
:10AB200010BD0000044A09B9002313705268002ABE
:10AB300000D0104770470000483E0020F8B51C4682
:10AB400017460D46060018D0BDB1B4B100F0A8F903
:10AB5000A8B1284600F0A4F988B1204600F0A0F979
:10AB600068B1FDF751FE009023463A46294630462B
:10AB7000FDF74EFE28B10020F8BD0E20F8BD1020D4
:10AB8000F8BD0B20F8BD00000E4910B50A784C78CE
:10AB90000023A24212D0521CD2B20A70022A00D163
:10ABA0000B70084A0B78183252F82320026088682C
:10ABB000104420F07F408860012010BD0360002019
:10ABC00010BD00006C3E0020826883881A40036834
:10ABD0009A5C0A708168491C81607047C2688388EA
:10ABE0001A4003689954C168491CC160704700004D
:10ABF000F8B506461A481F46154600780C46C007A9
:10AC000008D03046FFF796FC30B13CB1200507D0A4
:10AC10000620F8BD0120F8BD0220F8BD0320F8BDD4
:10AC20003068A04204D8716804EB0530884201D92D
:10AC30000520F8BD7DB1684602F068F968B100985A
:10AC40000221C0E900670172210B8181058202F0B7
:10AC5000B1F90020F8BD0420F8BD0720F8BD0000C0
:10AC60008C3E0020084A136823F00103136031B1C1
:10AC700043F0020313604268002A03D0104723F018
:10AC80000203F7E770470000443E002003480178C4
:10AC900041F0010101700020704700008C3E00204F
:10ACA0000348406E042801D00020704701207047FF
:10ACB000F04C00202DE9F84307461D48DDF82080C0
:10ACC0001E46007815460C46C0070CD03846FFF7E4
:10ACD00031FC50B15DB154B145EA0400800708D0A1
:10ACE0000620BDE8F8830120FBE70220F9E70320F6
:10ACF000F7E73868A04204D8786804EB86018842F8
:10AD000001D20520EDE77EB1684602F0FFF868B198
:10AD100000980121C0E900780172C0E903548682DD
:10AD200002F048F90020DCE70420DAE70720D8E742
:10AD30008C3E002070B5174A17490446106E0B78F8
:10AD400000EB400002EBC0009D0715D5022C02D09D
:10AD5000032C1BD102E001F031FC17E04A78521CB1
:10AD6000D2B24A70032A11D900224A70082102F097
:10AD700053FA02F0B5F809E0580707D523F00400AC
:10AD80000870526E12B140F002000870BDE87040C9
:10AD900002F0D8B8F04C00208C3E002010B586B0F0
:10ADA00000249DF80000019420F00F00401C20F0CA
:10ADB000F00010308DF80000029403A86DDF002829
:10ADC0001CD19DF80D00401C8DF80D0003A86CDF10
:10ADD000002813D107220AA168467CDF00280DD184
:10ADE0000C20ADF804001820ADF80600ADF80840BE
:10ADF0004FF4C870ADF80A0001A87ADF06B010BDA4
:10AE00004466755461726700F8B51D4C20780028BF
:10AE100034D0206928B10026E06820B1002526B191
:10AE200013E00126F8E70125F9E76078002825D12D
:10AE3000684648DF052803D020B1FEF759FF04E03B
:10AE4000012602E02169009888479DB960780028B2
:10AE500014D16088ADF800006946A06861DF05285C
:10AE600003D020B1FEF744FF04E0012502E0D4E95D
:10AE700002018847002ED8D0002DD0D0F8BD0000A8
:10AE8000A03E0020054940880A88904204D34988A2
:10AE9000884201D80120704700207047283E0020DA
:10AEA000800701D0002070470120704770B505462B
:10AEB00008680C464A6886682846314601F0B4FEA8
:10AEC0006068286104F10C00686170780221B1EBC0
:10AED000901F01D1241D2C6170BD00002DE9F043AD
:10AEE000264CA4F110092278D9F8048099F803506F
:10AEF000404694F801C0D9F8086031E002EB420303
:10AF00006168521C01EBC301A378D2B2934200D115
:10AF100000220B78022B02D0032B21D11DE0034627
:10AF20004F68194603E0B94203D00B46C969B9B16D
:10AF3000F9E7A9B18B4205D1C06918B9104E0125B6
:10AF4000B56000260F68C969D96149B10B683B44F7
:10AF50000B6005E00174C06900E000210028F9D110
:10AF60009445CBD1C9E9010689F80350404502D088
:10AF70000120BDE8F0830020FBE700007C3E0020BC
:10AF8000001001402DE9F0412A4F0446002607F148
:10AF90001005D7F804803EE002D02046E4691DE0A9
:10AFA0002878696800EB4002401CC0B201EBC20186
:10AFB0002870AA78904200D12E700A784868012A39
:10AFC0002BD1027C4ABB8A684260CA6882600A69E7
:10AFD000C26049698161F97801B146604368BA6825
:10AFE000DFF854C0991A21F07F41614502D282688E
:10AFF000114406E0D11A826821F07F418A4202D9C9
:10B00000511A016000E0066046600121866001740B
:10B01000C66102F06FFB002CBED1287869788842A7
:10B02000BED17968414502D00120BDE8F081002001
:10B03000FBE700006C3E0020FFFF7F0010B58AB0E8
:10B04000FFF74AFA0220FFF73FFA00240323CDE975
:10B05000004304202246214601F090F801221720E7
:10B06000009400231146019401F088F84FF0A041AC
:10B070004FF40000C1F80805182210496846FDF792
:10B0800004FA0F4806900F494FF48070CDE907018C
:10B09000099006230C4A06A96846FEF7B1FF10B9CD
:10B0A00000F029F808B1FEF7BDFB4FF4405080686E
:10B0B00000F00CF80AB0002010BD00003CDC0700D6
:10B0C0006444002064450020FDD7070010B5044605
:10B0D00000F03EFD00280DD14FF0E021401EC1F8E8
:10B0E0008001204613DF002804D12046BDE810402F
:10B0F000FDF790B910BD10B500F0B2FC10BD70B5F1
:10B100009CB01C4615460E46052802D006201CB0F1
:10B1100070BD6068202801D00920F8E7684602F079
:10B120003DF90028F3D12A463146684602F0F6F987
:10B130000028ECD101226846216802F0A7F8002817
:10B14000E5D1202060600020E1E730B4042802D07F
:10B15000062030BC70474868402802D15868402813
:10B1600001D00920F5E71B68D2E9004508682A46A6
:10B17000214630BCFFF7E2BC00283ED01F49204AE0
:10B18000096800BF00BF00BF00BF00BF00BF00BF15
:10B1900000BF91422FD000BF00BF00BF00BF00BF63
:10B1A00000BF00BF00BF00BF00BF00BF00BF00BFA7
:10B1B00000BF00BF00BF00BF00BF00BF00BF00BF97
:10B1C00000BF00BF00BF00BF00BF00BF00BF00BF87
:10B1D00000BF00BF00BF00BF00BF00BF00BF00BF77
:10B1E00000BF00BF00BF00BF00BF00BF00BF00BF67
:10B1F00000BF00BF00BF0138C3D17047B43E00207C
:10B200000024F40000283ED01F49204A096800BFEE
:10B2100000BF00BF00BF00BF00BF00BF00BF914222
:10B220002FD000BF00BF00BF00BF00BF00BF00BFE6
:10B2300000BF00BF00BF00BF00BF00BF00BF00BF16
:10B2400000BF00BF00BF00BF00BF00BF00BF00BF06
:10B2500000BF00BF00BF00BF00BF00BF00BF00BFF6
:10B2600000BF00BF00BF00BF00BF00BF00BF00BFE6
:10B2700000BF00BF00BF00BF00BF00BF00BF00BFD6
:10B2800000BF0138C3D17047B43E00200024F40051
:10B2900000283ED01F49204A096800BF00BF00BFF8
:10B2A00000BF00BF00BF00BF00BF91422FD000BF52
:10B2B00000BF00BF00BF00BF00BF00BF00BF00BF96
:10B2C00000BF00BF00BF00BF00BF00BF00BF00BF86
:10B2D00000BF00BF00BF00BF00BF00BF00BF00BF76
:10B2E00000BF00BF00BF00BF00BF00BF00BF00BF66
:10B2F00000BF00BF00BF00BF00BF00BF00BF00BF56
:10B3000000BF00BF00BF00BF00BF00BF00BF0138CB
:10B31000C3D17047B43E00200024F4002DE9F05F53
:10B32000274C83464FF44059206B666AD9F80820B1
:10B330004FF4805802EB000A371A4546AF4200D856
:10B340003D4600220121504600F0E2FA002835D1A6
:10B3500000232A465946504600F03CFB00282DD1D8
:10B360002A465946504600F0C7FB002826D1002245
:10B370000121584600F0CCFA00281FD1206B284448
:10B380002063002000F024FDAA44AB447F1BD4D1ED
:10B3900000223146D9F80800FFF762F9A16A81421C
:10B3A00003D10121A661C4E907010548243000F05A
:10B3B00097FBBDE8F05F002000F00ABDBDE8F09FFC
:10B3C0003C4B002010B50A4C206A01280BD1E069E3
:10B3D00058B14FF44050A16980680022FFF740F94E
:10B3E000E169814201D0002010BD012010BD0000A4
:10B3F0003C4B00202DE9F04104460D4600260F4944
:10B400002868496B471A0D48406B04443A46214668
:10B410000B4800F071FB06463EB9284600F060FB81
:10B42000002000F0D5FC064605E03946204600F035
:10B4300071FB064600BF3046BDE8F0813C4B002062
:10B44000008007002DE9F041404C91F800C00F4604
:10B4500015460126D4E90E1033023D4ABCF1070F10
:10B4600070D2DFE80CF06F041C37186F6800B86802
:10B4700020B1984204D90420BDE8F0810320FBE705
:10B4800032480025957020213830FDF717F82563E4
:10B49000B868A06357E06860206CA86053E0BA68A1
:10B4A00013188B4203D96860206CA860E6E7274B2D
:10B4B00079685C331844FCF7E8FFE06BB968234A0D
:10B4C0000844E063D7E901014032FFF7C9F820647E
:10B4D000E06BE0E7884201D00820CDE79078144681
:10B4E00008B10120C8E7FFF7E9F9012821D119487F
:10B4F00090F87410C9B100F28C5190F87A2078302D
:10B50000012A01D005200BE0114A1C320CCAFFF7BA
:10B51000FFF9012804D1002000F05AFC10B10A20E4
:10B52000064610E00120A0700DE0007808B10A2660
:10B5300009E00520A0E7206CA860E06BC5E90030B9
:10B5400001E0FFE70226304696E700003C4B002072
:10B55000003E0020C83E002030B40B4B02464FF4A2
:10B5600040501C69816803F11800012C08D05C6907
:10B5700034B19B690C3003F6FF736FF30B0319446E
:10B5800030BC00F003B800003C4B00202DE9F04136
:10B590000D46014616468A680020012A0CD0012774
:10B5A000A52A12D0AA2A1ED0AC2A1AD10C462846A7
:10B5B00000F09EFBA0B91BE010494969012910D198
:10B5C0002846BDE8F041FFF7A9BE28460C4600F02A
:10B5D0008FFB28B9204600F083FA002000F0F8FB2A
:10B5E0003760BDE8F0812846BDE8F041FFF702BFB3
:10B5F00021462846FFF7FEFEF2E700003C4B002004
:10B600002DE9F05F15460C004FF0010B58D0944F18
:10B61000924E94F800C0D7E91410B278BB6C4FF486
:10B62000805A4FF00009BCF1070F7DD2DFE80CF023
:10B630007C0436EBE77CF100A16871B3874B0D0504
:10B640001B6902D045189D423AD151452FD8002A96
:10B650006BD00144994268D8F96CB964A168386527
:10B66000796438637178491C01F003017170A6F8A0
:10B670000490B168491CB160A168F26801F6FF71DD
:10B680001044090B774A00F043F900287ED0B068D7
:10B69000401EB0600520BDE8F09F11E06960B86C05
:10B6A000A860002AD4D0A168B1F5807F01D9042018
:10B6B000F1E7386D7A6D0844801A7A6C904201D9AE
:10B6C0000320E8E7664A60684832FEF7C9FFB864BD
:10B6D000386DA268DFF890A1104438656860B86CD6
:10B6E000A860B088A268B8461118FF2905D87778F5
:10B6F00061680AEB072318443FE0C0F58071737856
:10B700008FB20AEB032210443A466168FCF7BDFE93
:10B71000B088384481B2B180A068C01BA060606866
:10B7200038444746606001E095E070E0D8F83000AA
:10B73000F268C91C1044B268521CB26073788A085F
:10B740000AEB0321474B00F045F9E8B3B068401E0F
:10B75000B060F86CB864786D38656860F86CA860A3
:10B760007078401C00F003007070A6F80490A26886
:10B77000002A6ED00AEB00206168FCF786FE208963
:10B78000B18808440104B080090C00E02CE060D0CE
:10B79000D8F85420D8F83000D8F84430821A0A4437
:10B7A00044469A4255D3F268C91C1044B268521CF0
:10B7B000B26073788A080AEB03212A4B00F00AF979
:10B7C000C0B1B068401E00E00FE0B060E06CA06463
:10B7D000606D20656860E06CA8607078401C00F0C7
:10B7E00003007070A6F8049033E0B188386B084409
:10B7F0003863B5E7B188206B08442063EDE76960E2
:10B80000B86CA86025E07A6C081A904202D0082033
:10B8100041E71AE0C7F84490FB640020796500F026
:10B82000D7FA08B10A2036E7386D3169884203D06B
:10B830000FE000BF00F034FBB0680028FAD10A48DE
:10B84000B03800F091F9834603E0AB60386DC5E98C
:10B8500000A058461FE70220F5E70000003E002048
:10B860003C4B0020ADA80700F43F002010B54FF07E
:10B87000A040D0F81005000910F0010F0DD00848C5
:10B88000816D012901D0002010BD0021816508468D
:10B8900000F09EFA08B1FEF72BFA012010BD00005F
:10B8A0003C4B0020F0B54FF010235C694FF440533F
:10B8B0009B68E71AA7F54057874219D3134C1360CA
:10B8C000A4F1180300251E6A012E06D01D615D61DA
:10B8D0006560A56020600020F0BD266806F6FF7652
:10B8E0006FF30B06A7EB060C0127604505D909B1DC
:10B8F0000420F0BDC3E90475EAE7C3E90457116801
:10B90000024C31440C341160E2E70000544B00203B
:10B910002DE9FF410E4621490446154608680027D7
:10B9200042071BD5820703D50A2004B0BDE8F08189
:10B9300040F0010008608846B2B22B462146184804
:10B94000FFF756F9D8F80010070002D021F00101E6
:10B9500001E041F00101C8F800101DE0200501D010
:10B960000620E2E7C4F30F38204600F06BFC04F534
:10B970008054761EF8D17DB10A480168D0E90220D2
:10B98000CDE90220CDE90015200BADF80880ADF817
:10B990000A0000216846A8473846C6E7443E002012
:10B9A000B83E00206CDC070010B50100074C4FF0DA
:10B9B000000009D0FFF76AF918B9054801F04AFEFE
:10B9C00008B1082010BD0421216010BD443E0020B4
:10B9D00035AD07002DE9FF4116461F4A05461C46B6
:10B9E00010680027430719D5830703D50A2004B040
:10B9F000BDE8F08140F00100106090460A46B3B205
:10BA0000294616480094FFF755F90700EFD1D8F8FA
:10BA1000001041F00101C8F8001019E031B12DB15A
:10BA200041EA0500800703D00620E0E70320DEE7B7
:10BA300086B13246284600F01DFC4CB10020CDE90D
:10BA40000250CDE900040146ADF80C606846A047FD
:10BA50003846CCE70420CAE7443E0020B83E002028
:10BA600038B50020009000F089F96846FFF774FDB2
:10BA7000012400B10094FFF7F9FE08B100940EE034
:10BA8000009860B9FFF79EFC48B1FFF79BFC20B11E
:10BA90004FF440508068FFF719FB002038BD0E4B73
:10BAA0000E4A05210020FEF705FA08B1FEF720F93D
:10BAB0000A4A142178320820FEF7BCF908B1FEF7D3
:10BAC00017F900F0D7F90028E8D100F0C9F800BF55
:10BAD000FEF788F9FCE700009D9E0700184800204B
:10BAE000002101604160816002480163416301619E
:10BAF000416170473C4B00201FB5054B01AC9208DB
:10BB00001B6A009384E80700684618DF04B010BD84
:10BB10007CDC07001FB58908002201AB009283E896
:10BB20000700684618DF04B010BD00001FB592087A
:10BB3000930502D0092004B010BD044B1B6800938C
:10BB40000392CDE90110684618DFF4E77CDC0700BA
:10BB50001FB5044B0FCB8DE80F00684618DF04B00B
:10BB600010BD00008CDC07002DE9F041044690F880
:10BB70003D000125DFF8D880032808D00A25354E7E
:10BB80007069E0B101281DD00A20BDE8F081304E77
:10BB900031481C363346306020207060D8E90312EB
:10BBA0000520FFF7ACFA00B10A25202204F13F017D
:10BBB0003068FCF78EFC0028E1D00525DFE725483A
:10BBC000183001E0234824300027012D15D087606C
:10BBD000476007601F4820213830FCF76FFC1D4884
:10BBE000FF22B2215C30FCF762FC1C48376300F096
:10BBF000EFF800B10A252846C7E794F8251079B177
:10BC000001290FD002290FD0032910D05FF00A05B7
:10BC100094F8251081B1022911D0032911D10EE029
:10BC2000012102E0A52103E0AA218160F0E7AC2117
:10BC30008160A16A7163EBE76168B16001E06168EE
:10BC4000F160B16C4160D8F810100160C2E70000EB
:10BC5000003E00203C4B0020F443002095C5070027
:10BC600070B50120FFF7A0FE00281BD10E4D0F4C30
:10BC7000A860A06BA8B1FEF721FE90B1206A50B970
:10BC8000A06940B1084A00210C322861FFF70AFE82
:10BC90000120A87005E0E06A18B9A06908B1606ADF
:10BCA000F0E7002070BD0000003E00203C4B00206B
:10BCB00030B40C780D4B012C01D0062C08D10C7936
:10BCC000012C04D0022C02D0072030BC70471C701D
:10BCD0001B78012B03D0022B04D00520F5E730BCE4
:10BCE000FFF7B0BB30BCFFF78BBC0000003E00206C
:10BCF0002DE9F0411C4A034640F6FF75166B516B67
:10BD000030460C1A04F6FF746FF30B0405EB940530
:10BD1000F7186FF30B0506F5805621B1884202D162
:10BD20000020BDE8F08190462A4639463046FFF7AC
:10BD3000FDFE0028F5D12A4639463046FFF7DCFEE5
:10BD40000028EED12E442F44A54201D9002400E062
:10BD5000641BD8F834100020091BC8F8301000F01C
:10BD600037F8002CE0D1DCE73C4B002000225821C2
:10BD70000148FEF775BC0000404B002070B511492A
:10BD800000204FF4AE7508702A460F490F48FCF7A3
:10BD90007CFB0E4C2068401C04D0FFF7E7FF2168B5
:10BDA00081420ED029460948FCF788FB01206060DB
:10BDB000002000F00DF8002803D0BDE87040FDF72A
:10BDC00097BF70BD483E002000F007003C4B0020AC
:10BDD00070B50546174C01E0FEF71CFD20780028E1
:10BDE000FAD101202070656001F05EFE0022012181
:10BDF0001148FFF78DFD0728F6D00025B0B9FFF7F1
:10BE0000B5FF0E494FF4AE720860A1F5AE70FCF7B5
:10BE10003CFB00BF01F048FE094B57220949064888
:10BE2000FFF7D8FD0728F5D0002801D025700320A2
:10BE300070BD0000483E002000F007003C4B002091
:10BE400025AB0700E049002070B50848084D401BAD
:10BE5000C6080020044606E005EBC40040688047A1
:10BE6000002802D1641CB442F6D370BDF0DE070096
:10BE7000E8DE070070B50848084D401BC6080020E2
:10BE8000044605E055F834008047002802D1641CC0
:10BE9000B442F7D370BD0000F0DE0700E8DE070013
:10BEA000FDF7A0BF4907090E002806DA00F00F02CF
:10BEB00002F1E02282F8141D03E000F1E02282F892
:10BEC000001400F01F02012191404009800000F1A0
:10BED000E020C0F88012C0F8001170470121B1EBDA
:10BEE000507F01D101207047002070470349012095
:10BEF000C1F80803091D08607047000000D0004029
:10BF00002DE9F04105460F4600791F49C0EBC000FE
:10BF100001EB80041646E07E10B10820BDE8F081F8
:10BF200039462846FEF722F9666038692060F6B186
:10BF30003E7F4FF48871286800F02EFA4FF490711C
:10BF4000286800F029FA4FF49271286800F024FA6A
:10BF50004FF4A271286800F01FFA28680B49C0F856
:10BF6000041328683146000B40B2FFF79BFF286896
:10BF70000821C0F800150020E0752076A075012189
:10BF8000E176A076CAE70000C84C0020100302004A
:10BF90002DE9F04105460E4600791849C0EBC00076
:10BFA00001EB800417463046FFF798FF98B16168AF
:10BFB00000234FF4047011B12968C1F80803E17D32
:10BFC00079B1217E49B1616811B12968C1F80403D2
:10BFD0001120BDE8F0811020FBE7266101232776C0
:10BFE00004E0E7750020E660607620763A46314648
:10BFF0002846BDE8F04100F005B80000C84C00201C
:10C00000704700002DE9F05F894604464FF48875BB
:10C010009A46904600260068294600F0BDF94FF484
:10C02000A2773946206800F0B7F92068C0F8349547
:10C03000C0F838852068BAF1000F16D0D0F8001289
:10C0400041F02001C0F800122079DFF86C80C0EBCD
:10C05000C00108EB8100406850B120684FF40471C2
:10C06000C0F804133046BDE8F09F01210160EBE702
:10C07000AA46B9464FF4927B5146206800F087F9F2
:10C0800007464946206800F082F90546594620686F
:10C0900000F07DF9014647EA05000843ECD020791D
:10C0A0000022C0EBC00308EB8300C27501B1032678
:10C0B000002DD7D00F26D5E7C84C00202DE9F0473A
:10C0C00004460079254FC0EBC00007EB8005904681
:10C0D0000E460846FFF702FF30B1204600F040F858
:10C0E00020B11120BDE8F0871020FBE785F816800D
:10C0F0004FF00008AE60A5F8148020794FF49079D5
:10C10000C0EBC00007EB800546464946206800F0BA
:10C1100043F94FF4AC773946206800F03DF92068C8
:10C12000A97DAA68C0F84425C0F8481520680121F7
:10C130008160686880B9CA46B9465146206800F0F7
:10C1400026F907464946206800F021F90743F4D054
:10C1500000B10F2685F816803046C3E7C84C002092
:10C1600000790549C0EBC00001EB8000807D00280C
:10C1700000D0012070470000C84C002070B541EA93
:10C180004201DDE904564FF0A04441EA830141EA4F
:10C19000052104EB800041EA0641C0F8001770BD9C
:10C1A00070B541EA4201DDE904564FF0A04441EA8E
:10C1B000830141EA052104EB800041EA0641C0F811
:10C1C000001770BD70B541EA4201DDE904564FF039
:10C1D000A04441EA830141EA052104EB800041EAE1
:10C1E0000641C0F8001770BD1CB500220B46009236
:10C1F00011460192FFF7E6FF1CBD4FF0A04202EB93
:10C2000080000321C0F8001770471CB50021009181
:10C210000B46012201911146FFF7D4FF1CBD4FF0E0
:10C22000A04201218140C2F80815704701224FF059
:10C23000A043824011B1C3F808257047C3F80C250C
:10C2400070470000094A0221116009490B68002B60
:10C25000FCD0064B1B1D186008680028FCD000208D
:10C26000106008680028FCD07047000004E5014019
:10C2700000E4014070B50C4D01232B600B4C23688A
:10C28000002BFCD0002307E051F8236040F8236026
:10C290002668002EFCD05B1C9342F5D3002028605A
:10C2A00020680028FCD070BD04E5014000E4014096
:10C2B000016880684A68824201D2521C00E0002274
:10C2C0000868824201D101207047002070478068D1
:10C2D000884201D9481C7047002070472DE9F84377
:10C2E00004464FF000080E468DF800806846FDF7C2
:10C2F000FFFE2046FFF7DCFF07000AD0207C40B19C
:10C300004FF004089DF80000FDF716FF4046BDE819
:10C31000F8832068416820460D46FFF7D8FF216862
:10C32000486037B1206801682046FFF7D0FF2168D8
:10C330000860E268012A14D0022A16D0042A19D013
:10C34000082A1CD06068314605FB0200FCF79DF806
:10C35000204600F03DFE21688A688242D2D2886081
:10C36000D0E7616830784855F2E76168308821F895
:10C370001500EDE76168306841F82500E8E7D6E987
:10C380000001626802EBC502C2E90001E0E7405823
:10C39000002800D00120704708B5002242504058C4
:10C3A000009008BD70B53B4D044600882E8850288B
:10C3B00065D024DC112836D017DC022845D010289F
:10C3C00012D14FF0A0468006C6F80C051C2006F2DC
:10C3D0000C56FFF724FFA0882880A86820F00200F0
:10C3E000A8604FF40000306070BD132827D01428D7
:10C3F000FAD10023A0881A46194686DF0DE051289D
:10C4000027D0522835D055283FD05628ECD1A079D6
:10C410000028E9D11321304676DF0028E4D0BDE8BA
:10C420007040FDF765BCFDF731FC08B1FDF760FC1D
:10C430001720FFF7F4FE4FF6FF70288070BD002331
:10C440001A46852130467FDFE7E70021304667DF67
:10C45000E3E7A0790028F1D021460F4800F0D8F892
:10C460000028EBD004F10801BDE870400A4800F054
:10C4700015B80023A0881A461946A9DFCDE7214642
:10C48000BDE87040044800F00DB9A0881721ADDF69
:10C49000C3E70000383E0020F447002010B586B006
:10C4A00004460020009001900290039004900590B3
:10C4B0000B7B3748072B67D2DFE803F0660429358A
:10C4C0001E6649004A89062A01D0032212E04288EA
:10C4D0008280487B04904A7CD1F80E0003A962F365
:10C4E0001F60059001208DF80C006A460020FFF7C0
:10C4F000DFFB024601213DE003208DF80C006A4677
:10C5000003A90020FFF7D4FB0246042132E04A8948
:10C51000032A01D0032204E0B1F80D10418081808C
:10C520000122022126E004208DF80C006A4603A9AE
:10C530000020FFF7BDFB0246012801D0032119E0CE
:10C54000DDE90112204600F07FFD06B010BD4889EC
:10C55000022801D003220CE0487B049006208DF8CD
:10C560000C006A4603A90020FFF7A2FB024601283F
:10C5700004D00621204600F0CDFDE6E79DE80E0040
:10C58000204600F091FDE0E703221946F2E70000A3
:10C59000383E0020FFF758FCBFF34F8F0548016875
:10C5A000054A01F4E06111430160BFF34F8F00BF02
:10C5B000FDE700000CED00E00400FA05134A10B599
:10C5C00000215170017A012912D002291DD18189DF
:10C5D000491C8181C189491C89B2C181028A914269
:10C5E00013D1002100F018FEBDE8104000F078BC27
:10C5F000838AC28A4FF480619C1A8C4200DAA1B20D
:10C60000114489B2C1829942EBD010BD8C3E00200A
:10C6100030B587B0002401940294039404948A1DD9
:10C620008B790831022B35D153888589AB4231D1C2
:10C63000127A042A2ED0062A2CD0052A2AD00222C9
:10C6400001238DF804208DF80A300B89ADF80C30E9
:10C650004B890C31CDE90414ADF81420104DADF820
:10C660000E30CDF818D0018A05AA2888A5DF18B9A0
:10C670006846FDF7E8FE30B1ADF8084001A928880A
:10C68000A8DF50B106E040F2FD10ADF8080001A9A6
:10C690002888A8DF002007B030BD0120FBE700009C
:10C6A000383E002030B50546C888AA8887B0904239
:10C6B00023D1002005900390049000900290022066
:10C6C0008DF8000001F112000190088A029003AA7F
:10C6D00069460020FFF7ECFA094C608800280CD06E
:10C6E000A088401E0004000CA08006D1DDE90412E1
:10C6F000284600F0A9FC6088A08007B030BD00008B
:10C70000383E0020F8B50D4614460646694600F04E
:10C7100052FA00280ED0009AFF2A0AD8501C8242F2
:10C7200007D869780223B3EB911F02D0297981429F
:10C7300001D20020F8BD2270611C304600F066FB7B
:10C74000F8BD114600F0D6B8114600F0E3B8F8B5D0
:10C750000C4615460646694600F02DFA00280CD016
:10C76000009A501C904207D361780223B3EB911FCB
:10C7700002D02179814201D20020F8BD29463046FD
:10C7800000F044FB009A0021A954F8BD2DE9FF41B7
:10C790000C468E6817460546694600F009FB0028DE
:10C7A0000ED0A06800280BD060783A46C0F3011084
:10C7B00002283146684606D000F0DAF8019969602F
:10C7C00004B0BDE8F08100F086F8F7E77CB50D46CF
:10C7D0001446694600F08FF9002820D028790828EF
:10C7E00006D0042809D002280AD001280CD015E070
:10C7F000DDE90001C4E900010AE00098206006E0DC
:10C80000009800B2208002E0009840B22070C1176A
:10C81000DDE9002350405940084301D000207CBD91
:10C8200001207CBD7CB50D461446694600F09EF99A
:10C83000002820D02879082807D00021042809D012
:10C8400002280AD001280CD014E0DDE90001C4E977
:10C85000000109E00098206006E0009880B2208086
:10C8600002E00098C0B22070DDE90023504059403A
:10C87000084301D000207CBD01207CBD7CB50D4665
:10C880001446694600F072F9002821D02979082958
:10C8900008D00098C21704290BD002290DD0012915
:10C8A0000ED014E0DDE90002C4E90002014613469F
:10C8B00009E0C3170146206005E001B2218001E0D4
:10C8C00041B22170CB1741405340194301D00020A1
:10C8D0007CBD01207CBD70B50D4606461446114650
:10C8E000284600F080FA224629463046BDE87040CE
:10C8F00000F03EB838B50C460422694600F086FACE
:10C90000002806D09DF80310009861F31F60206096
:10C91000012038BD1CB50C460822694600F076FAA5
:10C92000002824D09DF801109DF800209DF80230C9
:10C93000080E42EA012242EA034240EA13409DF80F
:10C9400003309DF8041040EA132008439DF80510B9
:10C9500042EA036240EA01209DF8061040EA0140E5
:10C960009DF8071040EA0160C4E9002001201CBDC9
:10C970002DE9F04F04469DB000200090064601903E
:10C980004FF0FF3A0AA800F04FF94FF0010BE946CB
:10C9900082E012AB05AA06A9204600F0C9F850B102
:10C9A0000AA8059900F051F960B10B98407810F091
:10C9B000300F53D060E09DF84800002870D11DB0C2
:10C9C000BDE8F08F0598B04242D30B9D0AAE0B989C
:10C9D000407800F00F00082812D0304600F04CF9E3
:10C9E0000B98A842F3D156460599B14230D3D4F8FA
:10C9F000088009919DF8181008910E990D6820E0A3
:10CA00000B980678F0E729680F682FB1DDE9083246
:10CA100029462046B84711E011948968DDE908727B
:10CA2000097891420CD1294617A8FEF73FFA85F8FC
:10CA30000CB017AA39461198FDF76FFE0028BED03A
:10CA4000AD6815B1A1684145DDD0A168414523D14C
:10CA50009DF81810204600F015FA1BE00C984028AD
:10CA60000AD200F01F010BFA01F00C994A0959F89B
:10CA70002230034349F82230E5682DB10AAB9DF816
:10CA8000182020460599A8470AAA9DF818102046A4
:10CA9000FDF743FE002892D0A06800287FF479AF0C
:10CAA000DDE90B0445780AA800F0E6F80028F7D184
:10CAB00015F0300F03D10B98007800B1641CC4B19D
:10CAC0000020494605E000BF51F82020521C0ED13D
:10CAD000401CB0EB541FF7D3600959F8201004F044
:10CAE0001F00C0F120022AFA02F0814201D000208A
:10CAF00065E7012063E71CB50C46694600F036F88F
:10CB0000002814D0DDE90002C10709D051084FEA1E
:10CB100030006FEA00026FEA0100C4E9002004E07F
:10CB200051084FEA3000C4E900014FF001001CBD7C
:10CB3000F8B507460020187008700E4610601C46B5
:10CB400015466946384600F036F8012140B1009894
:10CB500050B1C10800F00700296030700120F8BD15
:10CB6000B86808B10020F8BD2170FBE72DE9F84353
:10CB70000026884681463446354604E0402E02D3DE
:10CB80000020BDE8F8836946484600F06BF90028AC
:10CB9000F7D09DF80070324607F07F00C10FFBF719
:10CBA00065FC29430443F61D0D463806E6D4C8E962
:10CBB00000410120E5E7F8B50E460746694600F05A
:10CBC00051F900280AD09DF80040200616D5072507
:10CBD00004F07F0403E0202D01D30020F8BD694656
:10CBE000384600F03FF90028F8D09DF8001001F019
:10CBF0007F00A8400443ED1D0806ECD401203460FA
:10CC0000F8BD00005968064A8968914206D1D0E90A
:10CC10000110044A401E491CC2E900107047000080
:10CC2000E0DA07001C3E0020C26000230160C0E97A
:10CC300001138B781A44026191F903301A4442615E
:10CC40000878002800D00120704770B545680E466E
:10CC5000044660680178B14206D1407800F00F00C8
:10CC6000082801D0012070BD204600F005F860685A
:10CC7000A842EED1002070BD30B541680A785AB1A3
:10CC800001F10C0343600A7B42B14C780A79C4F38A
:10CC90000115032D07D00BE0002030BDC2680168EC
:10CCA000FFF7C2FFF8E75D78C5F30115032D07D044
:10CCB0000225B5EB141F09D14C7914FB02F209E0EF
:10CCC0008D7804690022641B046103E0B5EB941FB6
:10CCD00000D10422497811F0300F02D18168491C3B
:10CCE00081609C78016921441144016193F903201A
:10CCF00011444161012030BD30B54168002487B046
:10CD0000497801F00F02082A11D08A091ED00222A8
:10CD1000B2EB911F09D10269C1F30111022914601C
:10CD200001D0032901D14069047007B030BD00690A
:10CD3000056808E02C7329466846FEF7B7F8684690
:10CD4000FFF7DAFFAD68002DF4D1EEE7C1F3011172
:10CD5000012912D00229E6D00329E4D04268517893
:10CD600001F00F0107290BD0916881B11279006998
:10CD700007B0BDE83040FBF788BB41690C70EDE7B8
:10CD80000169906807B0BDE8304000F02CB8117917
:10CD9000006907B0BDE83040FBF790BB10B5034B0E
:10CDA000002408C080E8160010BD000017A5070089
:10CDB00038B50D4604466946FFF7FDFE00280BD046
:10CDC000D4E90002D4E90213C5E90002C5E902135F
:10CDD0000098814201D2002038BDA860A168081ADD
:10CDE000A060012038BD00B50A4687B001466846FC
:10CDF000FFF71AFF002807D06846FFF77DFF684657
:10CE0000FFF73AFF0028F7D107B000BD7FB5144601
:10CE10000546A9B9124A2868904208D110E01022AC
:10CE200069462846FFF7F2FF002807D0103C102C77
:10CE3000F5D8224669462846FFF7E8FF04B070BDE2
:10CE4000A868A04201D20020F8E72B6822462846B5
:10CE500098470028F2D0A868001BA8600120EDE7E1
:10CE600017A5070010B504468068002809D023687C
:10CE7000012220469847002803D0A068401EA060E9
:10CE8000012010BD38B5002439B1012912D0022982
:10CE900012D005291DD0002038BD05460122694663
:10CEA0002846FFF7B3FF90B19DF800000006F5D4C7
:10CEB000012038BD08220DE005466946FFF77BFEDC
:10CEC00028B100212846009AFFF7A0FF38BD204670
:10CED00038BD0422BDE838400021FFF797BF0000AD
:10CEE0000848416E491E416604D107490A7822F07C
:10CEF00002020A70016E491C0166042901D1002159
:10CF000001667047F04C00208C3E002070B50C4943
:10CF10000446486E042811D00A6E0244042A00D345
:10CF2000121F401C486602EB420001EBC0000546A0
:10CF30001821FBF7C3FA0120256070BD002070BDE9
:10CF4000F04C0020194830B4016E01EB410100EBB8
:10CF5000C104406E002827D0207A012802D0022880
:10CF600016D10FE0A18AE08A4FF48062091A91423B
:10CF700000DA8AB2E168236901EB800103EB8000EB
:10CF800029DF01E0A08928DF112806D000280BD076
:10CF9000204630BC092100F03FB90549087820F04F
:10CFA000020040F00400087030BC7047F04C0020D4
:10CFB0008C3E00200549087810F0060F04D140F09F
:10CFC00002000870FFF7BEBF704700008C3E0020D3
:10CFD000016806C98A4201D3501A70478068401A16
:10CFE000401C104470472DE9F0411E681C46154650
:10CFF000074621B1012918D0052923D119E00020C5
:10D000002060401C2060B0421CD8012229463846CE
:10D01000FFF7FCFE002806D015F8010B000601D52D
:10D020002068EEE70120BDE8F08108200246186084
:10D0300002E004200246186029463846BDE8F04167
:10D04000FFF7E4BE0020EEE72DE9F04190460A46E6
:10D0500006001FD0124D2888A0F57F41FF391CD053
:10D06000287AC00719D00F4C6020012120700320BE
:10D070006070A170E11C104600F0C4FCC71CE119EF
:10D08000404600F0BFFCC219B1892888BDE8F041D4
:10D0900000F0E8B80E20BDE8F0810820FBE70000B2
:10D0A000383E0020084800202DE9F0479046994678
:10D0B0000A46060024D0154D2888A0F57F41FF3987
:10D0C00021D0287AC0071ED0114C60200621207084
:10D0D00061700120A070E11C104600F093FCC71C99
:10D0E000E119404600F08EFC0744E119484600F083
:10D0F00089FCC219B1892888BDE8F04700F0B2B8B0
:10D100000E20BDE8F0870820FBE70000383E002035
:10D110000848002030B498B10C4B1C88A4F57F451A
:10D12000FF3D10D01B7ADB070DD0094B60251D7029
:10D1300059709A708189204630BC032200F092B861
:10D140000E2030BC70470820FBE70000383E00206E
:10D150000848002070B5012670044FF0E02100253A
:10D16000C1F88001084C4010C4F84803C4F8080313
:10D1700066602F20FEF78CF8A660044C2F20A56077
:10D18000FEF786F8A57070BD001001406C3E0020CF
:10D190001FB501238DF800308DF808100192D0E9F9
:10D1A0000012684690471FBD10B50446FCF724FDE9
:10D1B00040B1002C09DA04F00F0000F1E02090F8F3
:10D1C000140D06E042F2010010BD04F1E02090F8D9
:10D1D00000044109082914D299B1012911D0042968
:10D1E0000FD005290DD00B480122816861B161097A
:10D1F00050F8213004F01F04A240134340F82130BE
:10D2000005E042F2020010BD2046FCF7E5FA0020DE
:10D2100010BD0000E44C00201FB5002200920192D6
:10D2200002920392037A012B02D0022B13D107E062
:10D230008DF8002002690292828AADF80C200AE083
:10D2400001228DF800208289C389D21AADF8082006
:10D250008289ADF80A2042680192006882686846B7
:10D2600090471FBD07B584B000220092ADF80010B2
:10D2700001218DF8021006A9029103490391019240
:10D280006946A6DF07B000BD0848002070B5164605
:10D290000D46040007D035B1206C802200213828CB
:10D2A000225403D307E00E2070BD2154401C3828BF
:10D2B000FBD30BE02154401C4028FBD321460846F9
:10D2C00000F096F838212046FBF7F8F8216CD4E9F5
:10D2D00012304A0FC900383459185041C4E90410BB
:10D2E000227CE2710A0A42EA0062A2710A0C42EA56
:10D2F00000426271020242EA116020716069E070CE
:10D30000010AA170010C6170000E04F83809214671
:10D31000084600F06DF84FF00002EEB1E06ED1006B
:10D32000C840A854A36ECB40A8180371636ECB40CD
:10D330000372236ECB400373E36DCB400374A36D84
:10D34000CB400375636DCB400376236DCB40521CFD
:10D350000377042AE2D31FE018235042216D03EB28
:10D36000C000C140A954666DC640A9180E71A66DD3
:10D37000C6400E72E66DC6400E73266EC6400E7431
:10D38000666EC6400E75A66EC6400E76E66EC64048
:10D39000521C0E77042AE0D3002070BDA8B10021F2
:10D3A0000164C0E912110A4901650A4941650A4947
:10D3B00081650A49C1650A4901660A4941660A4907
:10D3C00081660A49C166002070470E207047000040
:10D3D00067E6096A85AE67BB72F36E3C3AF54FA506
:10D3E0007F520E518C68059BABD9831F19CDE05B32
:10D3F0002DE9F04FC8B0002213466F46CC181B1D14
:10D400002568E4782DBA25F0FF05254347F822501A
:10D41000521C102AF2D31BE007EB820151F8083CA2
:10D420004FEA734484EAF34484EA932451F83C3C81
:10D430004FEAF31585EAB34585EAD303234451F84F
:10D440001C4C51F8401C2144194447F82210521C2E
:10D45000402AE1D3036D4793416D4691846D459415
:10D46000C26D44929246026E4392456E4295A94621
:10D47000856E4195C66E4096B34600264FEAB217B8
:10D4800087EAF22787EA726C02EA090725EA0208AE
:10D4900087EA0807BC44204F57F8268008EB0B07A3
:10D4A000BC445DF82670AB460CEB070E4FEAB307A1
:10D4B00087EA733787EAB35C81EA04074D4601EADD
:10D4C000040891461F400AEB0E02A24687EA0807AD
:10D4D0000C46BC441946761C0EEB0C03402ECDD3F3
:10D4E000479E33440365469B194441654599214451
:10D4F000816544995144C16543991144016642993B
:10D500004944416641992944816640995944C1661C
:10D5100048B0BDE8F08F0000D4DC07002DE9F041F1
:10D5200016460F46040004D006B317B10025A846DE
:10D530001AE00E20BDE8F081216C785D6054206C0B
:10D54000401C206440280ED121460846FFF750FFBA
:10D55000D4E912014FF40072801841F10001C4F8BF
:10D560004080C4E912016D1CB542E5D30020E1E71B
:10D5700018B10349C860002070470E2070470000B2
:10D58000A03E00201CB5034901910091694660DF6F
:10D590001CBD0000003E002070B50E460546144636
:10D5A0001C211046FAF78AFF012020804FF4905189
:10D5B000A161002121752672657205B1A07200205B
:10D5C00070BD10B511B10020FCF792FBBDE8104012
:10D5D000FDF71ABC0021024A0846FCF7B3BB000065
:10D5E000C3D50700FCF782BB2DE9F041074619B10E
:10D5F00088074FF0000402D00720BDE8F081104DED
:10D600004FF0E0200126A9606A806B60D0F800012D
:10D6100010F4005F03D034460D20FCF7C7F8094929
:10D62000384610DF070005D014B10D20FCF7D4F800
:10D630003846E2E72E70BDE8F0411620FFF7B4BD92
:10D64000A03E0020E5D507000148007870470000A3
:10D65000A03E002018B103490861002070470E2049
:10D6600070470000A03E00202DE9F84F204C002517
:10D670006846D4E901B6FDF787FA8046FDF72EFC2F
:10D680000746A946B8F1000F25D00023009ACC46E2
:10D69000606819E007680146974202D9BA1A026029
:10D6A00014E0C1F800C0D1F80C80D21BC8693B441B
:10D6B0008A46B8F1000F07D0F71827F07F47C1E975
:10D6C0000178CAF81C500D460028E3D16060284656
:10D6D000FDF758FC04E02846FDF754FC00B917B1EB
:10D6E0005846FCF737FF84F80390BDE8F88F000038
:10D6F0006C3E00200D4B10B5596831B102680C68C2
:10D70000A24204D8A21A0A60C161586010BD0B463B
:10D7100003E00B46C969121B21B10C689442F8D38F
:10D72000A41A0C600260C161D86110BD6C3E00207B
:10D730007CB5064600240D468DF800406846FCF78F
:10D74000D7FC01A800F098F970B10570094946604E
:10D750009DF8040048709DF80000FCF7EDFC1420D3
:10D76000FCF745F820467CBD04249DF80000FCF73A
:10D77000E3FCF7E77C3E00202DE9F0411D4D6C688D
:10D78000002C35D01C4800270068A968B846401A0C
:10D7900020F07F462068B04215D82246361A07444A
:10D7A000E469107C68B182F81080EB6833B1D2E98B
:10D7B0000501984728B1FCF79BFA02E0D2E9051071
:10D7C0008847002CE6D129786878814206D1401C30
:10D7D000C0B26870022801D185F8018005486978D7
:10D7E000183040F82170BDE8F0411420FBF7FFBF6E
:10D7F000BDE8F0816C3E00200415014070B5007852
:10D8000028B1012801D002281FD1FCF70BF80F4CDA
:10D81000A01C21780844FCF7D9FB2078611C401C2F
:10D82000C0B22070415C00250A2903D07D2901D0B7
:10D830005D2905D16070022105A000F05BF825701C
:10D84000012084F8030184F8025170BD6446002071
:10D850006F6B00007CB50178244D81B301290BD09A
:10D8600002292BD18DF80010C068691C019001229B
:10D87000C81DFEF78DFB2EE0406801781C48FCF7C0
:10D8800054FA1B4C012618B18DF80060019006E097
:10D89000A068E168814205D000208DF80000696829
:10D8A00068468847A068E168081AA188884207D8B6
:10D8B0000E490122491CC81DFEF76AFB7CBD01E030
:10D8C000AE70FBE70A4809491030FCF713FA30B193
:10D8D00003208DF80000696868468847EEE7034931
:10D8E000012201F10800FEF7E9FBE7E7903E002086
:10D8F000584D002070B50D460646002403E0305D0B
:10D90000FCF7D8FB641CAC42F9D370BD2DE9FF4194
:10D910000C464FF4927706463946FEF738FD00254F
:10D92000C0B139463046FEF737FD02208DF80000C1
:10D93000D6F88004C6F880040390D6F83C058DF82C
:10D940000800E0680190E5752576D4E90012684684
:10D95000904724E04FF4887739463046FEF717FDAC
:10D96000E8B139463046FEF717FDD6F83C05C1B29E
:10D97000E07D884213D1207E60B1E268D6F80002D3
:10D9800020F02000C6F80002207EE0752069E060EB
:10D99000257601E0E575E2682046FFF7F9FB4FF4D4
:10D9A000A27739463046FEF7F2FC68B13946304678
:10D9B000FEF7F2FCE07D38B1E575D6F83C05E2688B
:10D9C000C1B22046FFF7E4FB4FF49077394630466A
:10D9D000FEF7DDFC002813D039463046FEF7DCFCAC
:10D9E000A07D00280CD0D6F84C058DF800508DF89D
:10D9F0000800A0680190A575D4E900126846904718
:10DA0000BDE8FF810870020A4A70020C8A70000E9D
:10DA1000C87004207047000038B515494888A0F543
:10DA20007F42FF3A23D04A78124C521CD2B24A703D
:10DA3000237B93420AD3091D75DF002817D0A16903
:10DA4000002914D001B0BDE83040084700254D70D2
:10DA5000217C29B13B2176DF10B1A16901B1884752
:10DA60006169002903D08DF800506846884738BDA9
:10DA7000243E0020884700200A4A10B55378947845
:10DA8000591CC9B28C4200D1002114788C4201D1BA
:10DA9000002010BD0170506803EB430100EBC10092
:10DAA00010BD00007C3E002010B501E0FCF7B2FE86
:10DAB000FDF7F6F80028F9D110BD000001010000C3
:10DAC000010000000000000002050000210000002D
:10DAD0000000000000000000000000000000000046
:10DAE000011104FC0400000000000000021104FC0D
:10DAF0000400000000000000032104FC04040000F6
:10DB000000000000041101FF0100000000000000FF
:10DB1000051102FE0400000000000000061104FCD4
:10DB20000400000000000000071104FC04000000D5
:10DB300000000000081701FF22000000BCDA070007
:10DB4000091001FF01000000BADA07000000000020
:10DB500000000000000000000101000004000000BF
:10DB600000000000000000000000000000000000B5
:10DB7000011101FF0100000000000000021702FE79
:10DB800064000000E0DA0700031704FC0400000052
:10DB900058DB07000000000000000000000000004B
:10DBA000010700007000000070DB070002010000A8
:10DBB000010000000000000003050000410000001B
:10DBC0000000000000000000000000000000000055
:10DBD000011704FC7000000070DB0700021704FC52
:10DBE000B4000000A0DB07000000000000000000FF
:10DBF00000000000AF5D30CA57F40CB70409D89A92
:10DC00003C17D1A289CCB942BF57B83CFC5EEA4769
:10DC1000A278919C424DA794BB4E1CB915351C3778
:10DC20003B19B4C81A8B144892042FA9B739AEB463
:10DC3000E97DAC99F4DB0700400000001B00000008
:10DC40001A000000190000000F0000000000000092
:10DC500000E0D701041C1E006847002050EADA30BB
:10DC60008883B89F604F15F30000C98E0100000043
:10DC700000000000000000000000000001000000A3
:10DC80000000000000000000000000000200000092
:10DC90000000000000000000000000000300000081
:10DCA0000000000000000000000000000400000070
:10DCB000000000000000000000000000000700005D
:10DCC000BC4C0020984C0020200000000100000007
:10DCD00000000000982F8A4291443771CFFBC0B5F5
:10DCE000A5DBB5E95BC25639F111F159A4823F9227
:10DCF000D55E1CAB98AA07D8015B8312BE85312480
:10DD0000C37D0C55745DBE72FEB1DE80A706DC9B40
:10DD100074F19BC1C1699BE48647BEEFC69DC10FEC
:10DD2000CCA10C246F2CE92DAA84744ADCA9B05C28
:10DD3000DA88F97652513E986DC631A8C82703B0EB
:10DD4000C77F59BFF30BE0C64791A7D55163CA06F9
:10DD500067292914850AB72738211B2EFC6D2C4D05
:10DD6000130D385354730A65BB0A6A762EC9C281F3
:10DD7000852C7292A1E8BFA24B661AA8708B4BC289
:10DD8000A3516CC719E892D1240699D685350EF4B3
:10DD900070A06A1016C1A419086C371E4C7748276A
:10DDA000B5BCB034B30C1C394AAAD84E4FCA9C5BE0
:10DDB000F36F2E68EE828F746F63A5781478C88431
