:020000040001F9
:10F00000209B002015F401001DF401001FF40100F5
:10F0100021F4010023F4010025F4010000000000A8
:10F0200000000000000000000000000027F40100C4
:10F0300029F40100000000002BF401002DF4010070
:10F0400091FE01002FF4010041080200AD0402000E
:10F050002FF401002FF4010061FA0100E102020027
:10F06000C9070200E1070200F90702002FF40100BE
:10F070002FF401002FF401002FF401002FF4010000
:10F0800065080200990202002FF401002FF401002C
:10F09000C50402002FF40100CD0402002FF401008A
:10F0A0002FF401002FF401001108020029080200CA
:10F0B0002FF401002FF40100000000000000000008
:10F0C0002FF401002FF401002FF401002FF40100B0
:10F0D000CD0202002FF401002FF401000000000017
:10F0E0000000000000000000000000000000000020
:10F0F0000000000000000000000000000000000010
:10F1000000000000000000000000000000000000FF
:10F1100000000000000000000000000000000000EF
:10F40000DFF80CD000F03EF900480047016A020026
:10F41000209B00200648804706480047FEE7FEE79D
:10F42000FEE7FEE7FEE7FEE7FEE7FEE7FEE7FEE7B4
:10F430007D05020001F4010040EA01039B0703D0AF
:10F4400009E008C9121F08C0042AFAD203E011F823
:10F45000013B00F8013B521EF9D27047D2B201E0E5
:10F4600000F8012B491EFBD270470022F6E710B5C9
:10F4700013460A4604461946FFF7F0FF204610BD22
:10F48000CAB2401E10F8011F8A4202D00029F9D1E9
:10F4900000207047421C10F8011B0029FBD1801A84
:10F4A000704710B5002200E0521C835C8C5CA342C4
:10F4B00001D1002BF8D1D8B2E1B2401A10BD30B55D
:10F4C00004460020034600E05B1C934203D2E05C4C
:10F4D000CD5C401BF8D030BD0FB400B58DB010A985
:10F4E00009900B9000914FF0FF300A9000200C9093
:10F4F00005480690054807906A4609A80F9900F04C
:10F5000093F80DB05DF814FB45F6010063F60100B9
:10F510002DE9FF5FD2E901A74FF0000891699946F4
:10F520001446DDF838B0464601988847054659EA42
:10F530000B0005D009E0A169761C019888470546B3
:10F54000216A284688470028F5D1681C03D05FEA65
:10F55000CA7005D015E04FF0FF3004B0BDE8F09F51
:10F560002068011D2160D0F800800AE05FEACA70BF
:10F5700001D108F8015BA169761C7F1E01988847BC
:10F580000546002F1ADD681C18D0B9F1000F0DD008
:10F59000E81705EBD060421120F01F0059F8221047
:10F5A0002A1A012090400142E0D107E0BBF1000F90
:10F5B000DCD1216A284688470028D7D0E169019824
:10F5C0008847BBF1000F07D1002E05DD5FEACA7046
:10F5D00002D1002188F80010A068B84203DDBBF119
:10F5E000000F03D017B16FF00100B6E73046B4E763
:10F5F00030B50B46014600202022012409E021FA03
:10F6000002F59D4205D303FA02F5491B04FA02F5FF
:10F610002844151EA2F10102F1DC30BD026811443C
:10F620001378016018467047D1600449516104495C
:10F63000116200211161114600F03CB81DF6010075
:10F64000A9F60100426842B1016811F8013B23B1FB
:10F65000521EC0E90012184670470121C160881E81
:10F66000704742685AB1C368016843B983688B42E6
:10F6700005D0491E521CC0E90012002070474FF00F
:10F68000FF307047064C074D06E0E06840F001038C
:10F6900094E8070098471034AC42F6D3FFF7B4FE65
:10F6A000C8F60200E8F60200C0B24FF4F05100F0D4
:10F6B00097B900002DE9F34F8BB04FF0000801F12E
:10F6C0000C000C464FF0010B46460DF1080A019064
:10F6D0006269012101989047051E2DD0252D2CD05F
:10F6E000216A8847C0B16269012101989047216A67
:10F6F00088470028F7D1411E62690198904700E0D1
:10F70000761CA1690B988847216A88470028F7D1A1
:10F71000E1690B988847DBE7A1690B9888470746A2
:10F72000A84201D1761CD3E7E1690B9888477F1C7A
:10F7300002D1B8F1000F6FD046E1002762693D4663
:10F740003946019890472A2804D16269012101981D
:10F7500090470125DFF88492626901210198904762
:10F76000A0F130010A290AD24F45E5DC07EB8701F9
:10F7700000EB4107303FDFD445F01005ECE7E90628
:10F7800001D46FF000476C280AD04C2814D06828A8
:10F7900015D06A280DD074281CD07A281AD01DE004
:10F7A00062690121019890476C2802D045F0040558
:10F7B00014E045F002050DE045F020050AE062691D
:10F7C000012101989047682802D045F0080505E01E
:10F7D00045F400656269012101989047C4E9015729
:10F7E00065283DD019DC58287AD00CDC452837D064
:10F7F00004DC252826D0412831D131E046282FD0FD
:10F8000047282CD12CE05B2877D0612828D06328AA
:10F810007CD0642823D15AE0D0E06F2848D008DC9F
:10F8200066281DD067281BD0692821D06E2816D1E4
:10F8300027E0702845D0732868D0752847D07828ED
:10F840000DD14DE0A1690B988847054625283FF466
:10F8500069AFE1690B9888476D1C3FF46AAFB3E06C
:10F8600023466A466FF001000B99AFF300809EE0DB
:10F8700045F040006060A80723464FF0000236D4F0
:10F880003EE0E8077FF447AF2068011D2160006873
:10F89000290501D506701BE7290701D5068017E762
:10F8A000A90703D5F117C0E9006111E706600FE76A
:10F8B00045F040006060A80723464FF0080216D4C8
:10F8C0001EE040F60E0125EA0100606016E045F0FA
:10F8D00040006060A80723464FF00A0207D40FE0FB
:10F8E00045F040006060A80708D5234610226FF05D
:10F8F00001000B99AFF3008059E007E02346102286
:10F900006FF001000B99AFF3008050E04FF0000959
:10F910004F464B46632802D05B2806D040E0E806FD
:10F9200001D40120A06001273AE062690121019819
:10F9300090475E2805D14FF0010962694946019858
:10F940009047216939B900210A46534643F82120DE
:10F95000491C0829FADBB0B3216969B9C11700EB6A
:10F96000D16253110AEB830122F01F02821A012097
:10F970000B68904003430B60626901210198904736
:10F980005D28E8D1B9F1000F09D00020514651F8A7
:10F990002020D24341F82020401C0828F7DB02AB8E
:10F9A000224600976FF001000B99FFF7B1FD002888
:10F9B0000CDA401C08D1BBF1000F05D04FF0FF302E
:10F9C0000DB0BDE8F08FFFE74046F9E7E90701D148
:10F9D00008F1010806444FF0000B79E6CCCCCC0CC2
:10F9E0007F2801D9002208E0064A02EB5002C00736
:10F9F000127800D1120902F00F0201209040084055
:10FA000070470000E4F5020070B58C1810F8015B37
:10FA100015F0070301D110F8013B2A1106D110F8A7
:10FA2000012B03E010F8016B01F8016B5B1EF9D1AB
:10FA30002B0705D40023521E0DD401F8013BFAE731
:10FA400010F8013BCB1A921C03E013F8015B01F89C
:10FA5000015B521EF9D5A142D8D3002070BD000031
:10FA60002DE9F04F89B04FF00008002008904FF4C6
:10FA7000807007900126002413E0079808F08EFE9E
:10FA800048B100BF81480068304020B1079808F0B5
:10FA900077FE48EA060876000798001D80B20790B6
:10FAA000641C082CE9D34FF4BE7008F077FE50B107
:10FAB0004FF4BE7008F064FE48F0004808AA012127
:10FAC000002008F043FE08F0FF0000B301260024E8
:10FAD0001BE006EA0800B0B100BF6D4850F82400F2
:10FAE000C0F30420074600BF694850F82400C0F363
:10FAF00001408146204603F01BF9054615B14946F1
:10FB00003846A84700BF7600641C082CE1D308F0F3
:10FB1000004000287ED0002006900590002505E0DA
:10FB20004FF0FF3004A941F825006D1C002DF7D0DF
:10FB300000BF0020069000246FE05648005D03904F
:10FB4000039820F0C00753480057401C002863D09A
:10FB500004A9384607F04EFA00285DD003984FEA12
:10FB6000901A384603F0ECF8814603F0E1F8029071
:10FB7000029810B9BAF1030F4BD1BAF1030F11D1AA
:10FB8000394605A80246CB0801F0070112F803C068
:10FB90004FF0010E0EFA01FE4CEA0E0C02F803C003
:10FBA00000BF00BF00BF00BF4FF0A041084600F5F6
:10FBB000E06151F82710C1F3014900BF08A9384698
:10FBC00007F018FA8346BBF1000F02D0B9F1020F1B
:10FBD00005D0BBF1000F1BD1B9F1030F18D1BAF159
:10FBE000030F0FD1B9F1020F01D1032000E0022071
:10FBF00001903846019908F02AFD0698401CC0B2D1
:10FC0000069000BF029818B151463846029A9047B4
:10FC100000BF00E036E000BF641C042C8DD30698C2
:10FC200058B3012703AA0121002008F08FFD002509
:10FC30000AE003A850F8250008A951F825108842C9
:10FC400001D0002702E06D1C002DF2D000BF17B1DB
:10FC50000020069010E000250CE003A850F82500D5
:10FC600008A941F8250005A850F8250004A941F885
:10FC700025006D1C002DF0D000BF069800287FF4F1
:10FC800058AF00BF09B0BDE8F08F0000046300402A
:10FC9000106500407C58002070B590B004460E46B8
:10FCA0000020089000BF9DF8200020F00F00401CAD
:10FCB0008DF820009DF8200020F0F00010308DF825
:10FCC000200000BF00BF9DF8210020F00F00401C65
:10FCD0008DF821009DF8210020F0F00010308DF803
:10FCE000210000BF9DF8220020F00600801C8DF846
:10FCF00022001C2109A8FFF7B8FB9DF8240020F082
:10FD00000200801C8DF824009DF8240020F01000D3
:10FD100010308DF824001620ADF82C00ADF82E0020
:10FD200032480A9000200C900D9008A80E900020F8
:10FD30000F90019000BF9DF8040020F00F00401CC0
:10FD40008DF804009DF8040020F0F00010308DF8CC
:10FD5000040000BF00BF9DF8050020F00F008DF8E3
:10FD600005009DF8050020F0F0008DF8050000BFAB
:10FD70009DF8060020F00600801C8DF806009DF816
:10FD8000060020F008008DF806009DF8060020F01F
:10FD900010008DF806009DF8060020F00100401CC0
:10FDA0008DF8060001208DF80A004FF6F470ADF8CA
:10FDB0000800142103A8FFF758FB02A8039001A82C
:10FDC00004900120ADF814000020ADF816001420B6
:10FDD000ADF8180006480790A08804F11E0303AA96
:10FDE00009A9A2DF0546284610B070BD8B3500205A
:10FDF000A135002000F01F0201219140024A430971
:10FE000042F823107047000080E200E000F01F027B
:10FE100001219140024A430942F823107047000033
:10FE200080E100E000F01F020121914042099200B0
:10FE300002F1E022C2F80011704700F01F02012118
:10FE400091404209920002F1E022C2F8001170478D
:10FE500000F01F0201219140024A430942F8231099
:10FE60007047000000E200E010B5002807DA4A07FA
:10FE7000140E054A00F00F031B1FD45403E04A0779
:10FE8000130E024A135410BD18ED00E000E400E028
:10FE900010B54FF4807007F0B8F860B14FF480707F
:10FEA00007F0BCF8012007F0C3F801200B494870A7
:10FEB000002003F071F84FF4827007F0A6F858B1F3
:10FEC0004FF4827007F0AAF8022007F0B1F8012081
:10FED0000249887003F060F810BD00001858002037
:10FEE00010B50121072000F027FB0021052000F0BC
:10FEF00023FB0021062000F01FFB032000F002FB83
:10FF0000042000F0FFFA10BD2DE9F0410546032062
:10FF100000F0F8FA0746042000F0F4FA07F00100B8
:10FF200050B10221082000F007FB0021082000F05A
:10FF300003FB0020BDE8F08107F00200022821D178
:10FF40004B2000F0DFFA0446B4F5807F01DD4FF46A
:10FF50008074002606E07F2000F0D4FA05F8010B3B
:10FF6000701C86B2A642F6DB0221082000F0E4FAFB
:10FF70000021082000F0E0FA0521072000F0DCFA5B
:10FF8000E0B2D7E70020D5E710B50221082000F045
:10FF9000D3FA0021082000F0CFFA0321052000F059
:10FFA000CBFA0021062000F0C7FA032000F0AAFADD
:10FFB000042000F0A7FA0521072000F0BDFA03484D
:10FFC000007840F008000149087010BD1834002086
:10FFD00010B5044604EB840000EBC400404A115CF9
:10FFE0001C2000F0A9FA04EB840000EBC4003C4A9A
:10FFF00010444178202000F09FFA04EB840000EBCD
:020000040002F8
:10000000C400374A10448178212000F095FA04EBAF
:10001000840000EBC400324A1044C178222000F072
:100020008BFA04EB840000EBC4002D4A10440179E4
:10003000232000F081FA04EB840000EBC400284A7E
:1000400010444179242000F077FA04EB840000EB9F
:10005000C400234A10448179252000F06DFA04EB96
:10006000840000EBC4001E4A1044C1796E2000F0E9
:1000700063FA04EB840000EBC400194A1044017ACF
:100080006F2000F059FA04EB840000EBC400144A1E
:100090001044417A702000F04FFA04EB840000EB2A
:1000A000C4000F4A1044817A722000F045FA04EB34
:1000B000840000EBC4000A4A1044C17A1D2000F0FD
:1000C0003BFA0A211E2000F037FA04EB840000EB13
:1000D000C400034A1044017B2A2000F02DFA10BD11
:1000E000213400202DE9F04104460E4600276078B7
:1000F00005280AD1A078052807D1E078052804D181
:1001000025480088401C244908800121072000F070
:1001100013FA0121082000F00FFA0021082000F056
:100120000BFA0221082000F007FA0021082000F055
:1001300003FAF1B23E2000F0FFF9002504E0615D12
:100140007F2000F0F9F96D1CB542F8D30421052099
:1001500000F0F2F90021062000F0EEF9032000F093
:10016000D1F9042000F0CEF90921072000F0E4F9CC
:1001700000E07F1C102008F0B0FA012803D141F202
:1001800070708742F5D3032000F0BCF9042000F022
:10019000B9F9BDE8F08100007034002010B50446C4
:1001A000601E044908700CF01FFBFFF799FEFFF773
:1001B000EBFE10BD1D34002010B501245CE00124CD
:1001C00032202F4908602F480078C0EBC0002E4A2B
:1001D00002EB40010E222D48FFF72EF90E202C498C
:1001E000A1F804020846B0F804122848FFF77AFF85
:1001F0003AE02848007800F00500052834D124486A
:10020000401CFFF781FE2249A1F802010846B0F820
:100210000201F8B11B480078C0EBC0021A48383020
:1002200000EB42010C221A48401CFFF748F988B93C
:1002300014480078401C134908700878C11700EB77
:1002400091718910A0EB81010E4A11700CF0CCFA6B
:1002500002240DE00F48007800F0FE000D49087000
:10026000FFF73EFEFFF790FE054800680028C0D16A
:1002700000BF012C00D101E0002CA0D100BF10BDB7
:10028000003400201D340020903300208C430020D7
:10029000884200201834002010B500200949086069
:1002A00000210948C0F84411C0F84811C0F84C11A9
:1002B00000200549C1F8000102493C3908600DF0F1
:1002C00099F910BD401101400010014010B5042201
:1002D0000021024807F066FB10BD0000004002400C
:1002E000FEB54FF4827008F0D3FA002837D04FF4EF
:1002F000827008F0D7FA6C4890F82E0018B16A485E
:1003000090F82F0058B300208DF800006648406830
:10031000019065480189ADF80810C06818B900203F
:100320006149087412E06048008B5F4948830846C1
:10033000C06848600846008B08810020C8600846F5
:1003400090F82E0010B9002008F0C4FA5648016851
:10035000684688470020544981F82F0000BF524862
:1003600090F82E00002852D04FF4807008F090FAD8
:1003700000284CD04FF4807008F094FA4A48408B23
:10038000494991F82D10884216DD4748408B46496F
:1003900091F82D10401A444948830A4612890B46A9
:1003A0005B8BD21A0B465B6803EB42000A4692F85D
:1003B0002D1008F021FA23E03B48408B3A4991F890
:1003C0002D1088420FD13848C06860B101203649ED
:1003D00081F82F00002048830A4692F82D10D0683B
:1003E00008F00AFA0CE03048408B2F4991F82D10A4
:1003F000884205D101202C4981F82F000020488334
:100400004FF4827008F04EFA042008F063FA4FF4BB
:10041000887008F03DFA70B14FF4887008F042FA25
:1004200000202149087402208DF800000846016868
:100430006846884700BF4FF48A7008F029FA38B13F
:100440004FF48A7008F02EFA0020174908742AE049
:100450001548456924E0B5FA85F64FF00040F040B4
:100460008543B00000F58C74204608F011FAB8B14D
:10047000204608F017FA01208DF80000A4F58C70D2
:10048000C0F3C7008DF80400A4F58C70012121EAA7
:1004900090018DF80510044801686846884700BF40
:1004A000002DD8D100BFFEBD8458002010B5034CEC
:1004B0002146034805F08EFE10BD0000B458002010
:1004C0000030004010B50CF0ABFF10BD70B50B480C
:1004D000006880B1094800688047044600BF25468F
:1004E0003DB100BF064A40F2AB11284600F0A2FE23
:1004F00000BF00BF01E005F041FD70BD8036002067
:1005000070F602003EB504468DF8084055208DF87F
:100510000900112008F0BFF8022001AB024602A931
:100520000090044807F03CFC112008F0EDF89DF81D
:1005300005003EBD6CF302003EB505460C4645F095
:1005400080008DF808008DF80940112008F0A3F80C
:10055000022001AB024602A90090034807F020FCEC
:10056000112008F0D1F83EBD6CF3020001480249A9
:10057000086070470090D0039836002010B503F053
:1005800091FA10B182488349486703F0A3FA28B171
:1005900081480068C0F342308049086003F0C4FA23
:1005A00028B17F48006820F080707D49086003F022
:1005B000D3FA48B100207B4908604FF08041C1F870
:1005C00010017649091F086003F0F0FA18B1032002
:1005D00072496431086003F001FB68B1052072497B
:1005E0000860012070497831086000206E490831A8
:1005F00008603F20091F086003F008FB002855D061
:100600006A4800686A4908606848001D0068091D5A
:100610000860664808300068091D086063480C30AF
:100620000068091D0860614810300068091D0860F5
:100630005E4814300068091D08605C481830006886
:100640005B492031086059481C300068091D08606A
:10065000564820300068091D08605448243000685E
:10066000091D0860514828300068091D08604F487E
:100670002C300068091D08604C48303000684C4937
:1006800040310860494834300068091D0860474817
:1006900038300068091D086044483C300068091D76
:1006A0000860424840300068091D086003F0D0F936
:1006B00030B139481430006800F04F003D490860FF
:1006C00037487438006840F4700035497439086060
:1006D00000BF00BF00BFBFF34F8F00BF00BF00BF10
:1006E00000BF00BF00BFBFF36F8F00BF00BF00BFE0
:1006F0003148006800F0004030B92F48001D006804
:1007000000F00040002840D001202C49086000BFC4
:100710002B4800680028FBD015202749086000BF3F
:10072000274800680028FBD015212348001D0160E0
:1007300000BF234800680028FBD000201F49086044
:1007400000BF1F4800680028FBD000BF00BF00BFEB
:1007500000BF00BFBFF34F8F00BF00BF00BF1048F6
:10076000F038006800F4E06016490843001D0C49A9
:10077000F039086000BF00BF00BFBFF34F8F00BF5C
:1007800000BF00BF00BF00BFFDE7FFF7EFFE10BDD9
:100790000DF0ADBA00C00740440200103C05004017
:1007A000FCED00E00C010040105600400404001075
:1007B00020C50040E40E00400012001004E5014096
:1007C00000E401400000FA0510B504220249034884
:1007D00005F0D2FC10BD0000F4580020008000405D
:1007E00010B504220249034805F0C6FC10BD000004
:1007F000005900200090004010B50422024903482F
:1008000005F0BAFC10BD00000C59002000A000400B
:1008100010B506220249034805F0AEFC10BD0000E9
:100820001859002000A0014010B5062202490348D3
:1008300005F0A2FC10BD00002459002000B00140CA
:1008400010B50648007F20B1044905480DF0A7FF08
:1008500003E0024902480DF0F5FE10BDD458002017
:100860000020004010B5012007490968014009B186
:10087000012100E00021012905D1080208F0C8F893
:1008800002480068804710BD040301401436002070
:1008900010B51F2007F0FFFE10BD10B51F2007F098
:1008A00033FF10BD0FB4084B10B504A902AA03987A
:1008B00000F03EF8044602A9002000F0DAF92046D4
:1008C00010BC5DF814FB0000730C020002E008C8C5
:1008D000121F08C1002AFAD170477047002001E0BA
:1008E00001C1121F002AFBD17047000001462029D8
:1008F00008DA012088400A4A104008B101207047F8
:100900000020FCE7402909DAA1F12000012202FAC7
:1009100000F008B10120F2E70020F0E70120EEE747
:10092000FC06FFBC00BFEFF31081084672B67047AB
:100930002DE9FF4F8BB088460546002606E02528A6
:100940000BD0DDE90D1290476D1C761C287800282D
:10095000F5D10FB03046BDE8F08F0024A146A24685
:100960000122AE4900E0044315F8013F203B02FAA2
:1009700003F00842F7D128782A2810D06FF02F0210
:100980002878A0F13001092915D809EB890102EB7B
:10099000410144F0020400EB01096D1CF0E758F836
:1009A000041B5FEA010903D544F40054C9F10009AE
:1009B00044F002046D1C28782E2817D115F8010F79
:1009C00044F004042A280ED06FF02F022878A0F1FA
:1009D000300109290AD80AEB8A0102EB410100EB38
:1009E000010A6D1CF2E758F804AB6D1C28786C28DE
:1009F0000FD006DC4C2817D068280DD06A2814D1F7
:100A000004E0742810D07A280FD10DE044F40014CB
:100A10000AE044F4801401E044F44014697881420F
:100A200002D104F580146D1C6D1C2878692865D0EE
:100A300006DC00288DD0632827D0642806D15DE02D
:100A40006E2808D073282AD0752877D0DDE90D12DA
:100A50009047761CE0E0C4F30250022809D0032836
:100A60000DD0D8F8001004280DD00E6008F104084D
:100A7000D2E0D8F80010F217C1E90062F6E7D8F822
:100A800000100E80F2E70E70F0E718F8041B8DF8E6
:100A9000001000208DF80100EB46012003E058F81B
:100AA00004BB4FF0FF3061074FF0000701D40AE0AC
:100AB0007F1C57450DDA8742FADB1BF80710002927
:100AC000F6D106E07F1C8742FCDB1BF807100029EB
:100AD000F8D1DDE90D23A9EB07008146214600F09E
:100AE000B1F83044C61904E0DDE90D121BF8010B22
:100AF00090477F1EF8D22146484688E058F8040BFC
:100B0000C4F302514FF00A0B032900D100B20429AB
:100B100000D140B2002802DA40422D2102E0210536
:100B200005D52B218DF82410012104E006E0E10712
:100B300010D02021F6E708AF089113E058F8040B15
:100B4000C4F302514FF00A0B032900D180B20429EB
:100B500000D1C0B20021EEE75946FEF749FD303121
:100B600007F8011D0028F7D1ADEB070000F1200BBD
:100B7000600702D524F4803401E04FF0010ADA4521
:100B800002DDAAEB0B0000E00020824600EB0B0127
:100B900008980144A9EB01000A90E00306D4DDE9BE
:100BA0000D2321460A9800F04DF806444FF0000945
:100BB00008E009A911F80900DDE90D12904709F1D3
:100BC0000109761C08998945F3DBE0030CD5DDE9C2
:100BD0000D2321460A9800F035F8064404E0DDE9CB
:100BE0000D1230209047761CBAF10001AAF1010ADB
:100BF000F5DC05E0DDE90D1217F8010B9047761CD6
:100C0000BBF10001ABF1010BF4DC0A982146DDE9F0
:100C10000D2300F005F806446D1C97E60928010035
:100C20002DE9F041044600251E461746880404D4E9
:100C300005E039462020B0476D1C641EF9D52846D2
:100C4000BDE8F0812DE9F041044600251E4690469E
:100C5000C80301D5302700E02027880404D505E02B
:100C600041463846B0476D1C641EF9D52846BDE89C
:100C7000F0810A68531C0B601070704770B5054610
:100C80000C4605B10CB9002070BD287840082178C9
:100C9000B0EB510F01D00020F6E70622611C681C62
:100CA000FEF70DFC08B90120EEE70020ECE7024654
:100CB000002104E0505C08B101207047491C06295E
:100CC000F8D30020F9E7000010B504466CB10848DD
:100CD0000068A04209D806484068A04205D32046D3
:100CE00005F0D0FA08B1012010BD0020FCE700009B
:100CF000AC3600202DE9FC41044688461646002506
:100D000037880020308094F82D0058B13A4631469B
:100D1000404601F0AEFC054600BF15B12846BDE8CF
:100D2000FC8100BFA07850B13A463146404600F001
:100D3000F9FC054600BF0DB12846F0E700BFE0789A
:100D400060B1E17848B23B463246414603F0BCFD13
:100D5000054600BF0DB12846E1E700BF606868B1F5
:100D6000616891F900003B46324641460CF032FD85
:100D7000054600BF0DB12846D1E700BF20890028F5
:100D80000EDD43460622022104F10800CDE900678A
:100D90000DF098FE054600BF0DB12846BFE700BF25
:100DA000208A00280EDD43460722032104F11000AB
:100DB000CDE900670DF086FE054600BF0DB128465F
:100DC000ADE700BF208B00280EDD4346152214211D
:100DD00004F11800CDE900670DF074FE054600BF70
:100DE0000DB128469BE700BF206A58B13B4632460A
:100DF0004146206A02F05DF9054600BF0DB1284664
:100E00008DE700BF606A58B13B4632464146606A92
:100E100005F0B4FE054600BF0DB128467FE700BFD0
:100E200094F82C0000280BDD3B4632464146204614
:100E30000BF0F8FB054600BF0DB128466FE700BF79
:100E4000207858B13B4632464146204605F064FFC3
:100E5000054600BF0DB1284661E700BF28465EE7A2
:100E600070B504461448FFF722FF0546012C06D052
:100E7000022C0BD0032C10D0042C1AD113E00F48F5
:100E8000407810B10DB1012070BD00BF0B488078D3
:100E900010B10DB10220F7E700BF0848C07808B1D3
:100EA0000320F1E700BF0548007908B10420EBE713
:100EB00000BF0020E8E700009D340020104E002015
:100EC0000146C87800F0040008B9072070470020E8
:100ED000FCE710B501220221002001F0D7FE0446F4
:100EE00000BF1CB1072C01D0204610BD00BF072257
:100EF0000221012001F0CAFE044600BF1CB1072CEC
:100F000001D02046F1E700BF0A220021084601F087
:100F1000BDFE044600BF1CB1072C01D02046E4E70B
:100F200000BF0020E1E7000030B599B03C210AA8DD
:100F3000FEF79BFA02208DF8280008208DF8290082
:100F400000208DF82A0006208DF82B000120ADF836
:100F500030002A490D912A4890F87900284991F8E3
:100F6000781040EA0120274908802748244991F851
:100F700074100170401C22494A6E0260B1F868107A
:100F80008180411E1E48B0F87500A1F80700084690
:100F90001B4991F8201041720A201A4988801A4989
:100FA000184881601390202102A8FEF75EFA012004
:100FB0008DF80B00154800680690154800680790EA
:100FC00001208DF80C004FF4486008900020099033
:100FD000104B02AA014600900AA800F0F1FE044658
:100FE00000BF25463DB100BF0BA24FF48F612846DC
:100FF00000F020F900BF00BF19B030BD4033002021
:10100000E4370020D8370020883700204433002000
:10101000483300203D8A02002E2E5C2E2E5C2E2EA0
:101020005C6D61696E2E630070B50A48007800F04F
:10103000A7FF044600BF25463DB100BF06A240F20F
:10104000FB61284600F0F6F800BF00BF012006490A
:10105000087070BD553300202E2E5C2E2E5C2E2E77
:101060005C6D61696E2E63005033002070B58CB0EA
:1010700004460D461646002005E0C0F10F01615CF4
:101080000DF80010401C1028F7D30D2104A8FEF71E
:10109000ECF9002005E02A5CC0F10F0304A9CA5452
:1010A000401C0328F7D3684643DF002005E0C0F169
:1010B0000F0208A9895C3154401C0328F7D30CB0F7
:1010C00070BD000070B590B004460E460020089038
:1010D00000BF9DF8200020F00F00401C8DF820007C
:1010E0009DF8200020F0F00010308DF8200000BFA7
:1010F00000BF9DF8210020F00F00401C8DF821005A
:101100009DF8210020F0F00010308DF8210000BF84
:101110009DF8220020F00600801C8DF822001C2182
:1011200009A8FEF7A2F99DF8240020F00200801C17
:101130008DF824009DF8240020F0100010308DF868
:1011400024001420ADF82C00ADF82E0032480A908F
:1011500000200C900D9008A80E9000200F90019098
:1011600000BF9DF8040020F00F00401C8DF8040023
:101170009DF8040020F0F00010308DF8040000BF4E
:1011800000BF9DF8050020F00F008DF805009DF8C8
:10119000050020F0F0008DF8050000BF9DF8060066
:1011A00020F00600801C8DF806009DF8060020F057
:1011B00008008DF806009DF8060020F010008DF85C
:1011C00006009DF8060020F00100401C8DF8060086
:1011D00001208DF80A004FF6F370ADF808001421D5
:1011E00003A8FEF742F902A8039001A80490012089
:1011F000ADF814000020ADF816001420ADF818006A
:1012000006480790A08804F11E0303AA09A9A2DFDB
:101210000546284610B070BD763500208A3500207E
:1012200070B504460D46164632462946204600F063
:1012300011F870BDFEB504460E461546B0B2ADF8C5
:101240000000019502946A46002144F20100FFF774
:10125000E7FFFEBD18B5002300939DF800301E4B3C
:10126000186059609A606FF48043034463B1012BA6
:1012700019D1194BDA60DB681B88174CA361234630
:10128000DB685B68E3610EE0134B1A611B699B68C6
:10129000114C636123461B691B88A36123461B69AC
:1012A0005B68E36100BF00BF0B4B1B680A4B5B68C8
:1012B000094B9B68084BDB68074B1B69064B5B6956
:1012C000054B9B69044BDB6972B600BF9DF800308B
:1012D000002BFBD162B618BD3059002070B5044612
:1012E0000D46204602F0EAFF28B12946204602F0CA
:1012F000D9FF002070BD0520FCE7034609B90E2088
:10130000704712B1501E104008B10920F8E719606B
:10131000501E988000209860D86000BFF0E770B53C
:1013200004460D46204602F0C9FFA188884205D830
:101330002946204602F0D5FF002070BD0420FCE7BE
:101340002DE9F04119481A4908601DE0174818496D
:10135000086018480478184800681849098804FB90
:1013600001051748006800EBC4008688144800682F
:1013700050F8347031462846B8470E48007805F0DA
:101380007FFD0C49087000BF00BF002058B900BFA6
:10139000084908780B490978814201D1012100E010
:1013A00000210029D2D0BDE8F08100003546526E00
:1013B0000006014078360020743600207A3600207E
:1013C000703600207936002010B503460C4600BF69
:1013D0000B48406808B9082010BD00BF0AB90720B3
:1013E000FAE70BB90720F7E71868007C08B1082076
:1013F000F2E71968002008744C744A6100BFEBE7FB
:10140000203600202DE9F04107460D4614461E46C1
:10141000204600F0030109B9012100E0002111B9C3
:101420000720BDE8F0810CB90720FAE70AF0F0FACE
:101430001148066000201149087048700846857000
:10144000446000200E4908600E4908700E4908707B
:101450001420FEF7CFFC07211420FEF705FD142011
:10146000FEF7E0FC38460AF0A9FA0AF0A1FA0749AB
:1014700008600020D5E700003C3600202036002020
:101480002836002038360020393600202C3600203F
:101490002DE9F04104460E461746254600BF104888
:1014A000406810B90820BDE8F08100BF0CB90820E1
:1014B000F9E7052E01D20720F5E7686908B9082089
:1014C000F1E7687C012801D1304600E00020804629
:1014D0003B464246314628460CF03CF8E3E7000024
:1014E0002036002070B50446254600BF08484068F5
:1014F00008B9082070BD00BF0CB1686908B90820A0
:10150000F8E700202874022128460CF052F8F1E791
:10151000203600202DE9F041044610480778214686
:101520000F48FFF7DBFE8046A7B100200B4908708B
:1015300001220C490C4806F075FD054600BF2E46F9
:1015400036B100BF09A2D5213046FFF773FE00BFB8
:1015500000BF00BF4046BDE8F081000052360020C9
:101560005059002051360020443600202E2E5C2E8B
:101570002E5C2E2E5C2E2E5C2E2E5C2E2E5C636F2F
:101580006D706F6E656E74735C6C696272617269A6
:1015900065735C756172745C6170705F75617274A3
:1015A0005F6669666F2E63002DE9F04188B00446DE
:1015B0000D46174698462E4807601DB9072008B00B
:1015C000BDE8F081A88882B22A482968FFF795FE15
:1015D000064600BF0EB13046F1E700BFA88982B2CF
:1015E0002548A968FFF789FE064600BF0EB13046C0
:1015F000E5E700BF202221496846FDF71DFF60692D
:101600000690207C08B1012000E000208DF8140035
:101610008DF81C80607C08B10E2000E000208DF861
:101620001500E0680290A06803902068019060684F
:101630000090134A6946134806F0B2FC064600BF04
:101640000EB13046BBE700BF00200F49087020688C
:10165000401C58B19DF81D0010B90A4806F04CFD19
:1016600001220A49074806F0DDFCA8E70020A6E7AA
:101670004C3600205059002060590020B0F502007F
:1016800001E5020044360020523600205136002089
:1016900070B5044621460B48FFF741FE054675B973
:1016A000094806F0C3FE50B908490648FFF716FE80
:1016B00028B901220549044806F002FE05462846DD
:1016C00070BD0000605900204436002050360020D4
:1016D00010B5044620460AF05BFC10BD70B5044608
:1016E00025460E488068B0B1ADB9FFF71BF9064634
:1016F0000A4800680A490860084840684FF0E0213D
:10170000C1F804010020054988601EB900BF62B617
:1017100000BF00BF00BF00BF70BD000070590020B7
:1017200000E100E0F8B505460C4617462088001D8C
:10173000B84201D90C20F8BD684679DF064600BFE3
:101740000EB13046F7E700BF032021886854208897
:10175000401C20801920218868542088401C20804B
:1017600020884119BDF800000DF0A5F82188084433
:1017700020800020DFE7000070B5002240F6CD4158
:1017800026480068FFF784FE044600BF25463DB1A9
:1017900000BF23A240F20E512846FFF74BFD00BFC9
:1017A00000BF002240F28F2121480068FFF770FE41
:1017B000044600BF25463DB100BF19A240F21251B8
:1017C0002846FFF737FD00BF00BF002240F26661E8
:1017D00018480068FFF75CFE044600BF25463DB18F
:1017E00000BF0FA240F215512846FFF723FD00BFAE
:1017F00000BF002240F233310F480068FFF748FE77
:10180000044600BF25463DB100BF05A24FF4A361C9
:101810002846FFF70FFD00BF00BF70BD7CF302003C
:101820002E2E5C2E2E5C2E2E5C6D61696E2E63005A
:1018300080F3020084F3020088F3020070B50546CD
:101840000C462068401C28B1206806F073FF206811
:1018500006F0D8FE6068401C18B10021606806F0F0
:10186000ACFE28792D4901EB4010007F50B3286869
:10187000A169C0F8241500BF617D227D286841EA76
:101880000203C0F86C3500BFD4E90012286807F0E5
:10189000B8F8207D01283FD1A068401C18B1002174
:1018A000A06806F08AFEE068401C28B1E06806F0F7
:1018B00041FFE06806F0A6FED4E90221286807F09F
:1018C0008CF829E02868A169C0F8241500BF617D63
:1018D000227D286841EA0203C0F86C3500BFD4E9D4
:1018E0000012286807F060F8207D012814D1A06854
:1018F000401C18B10021A06806F05FFEE068401CA3
:1019000028B1E06806F016FFE06806F07BFED4E937
:101910000221286807F031F870BD0000D45800207B
:1019200030B58BB01348007800F07EFD05462846A0
:101930000AF062FBD8B101A800F0B6FC142201A99C
:1019400006A8FDF779FD00240DE007A931F8140081
:101950000849097800F076FD20B107A931F8140094
:1019600004F088FF641C0698A042EED800BF0BB0BC
:1019700030BD0000D634002001460348084008B9B5
:10198000012070470020FCE700C0F0FF10B50446BE
:10199000637903F003022179208804F03BFE10BD37
:1019A00010B50446207918B9204600F007F803E086
:1019B0002046FFF7EBFF00BF00BF10BD2DE9F0414F
:1019C00088B004460025208800F000FD07462088E6
:1019D00004F014FA0646A0680790607A0690208802
:1019E00000222349097800F03FFD17B908B0BDE88F
:1019F000F0816079C0F3800090B10721304607F094
:101A0000CDFE0546BDB108208DF800002088ADF858
:101A10000200ADF804600295684602F0C5F90AE0DC
:101A200020881449097800F00DFD20B1304604F0FB
:101A3000CFF9804600BF03208DF80C002088ADF858
:101A40000E006079C0F380008DF81000A079C0F31B
:101A500080018DF811109DF81C108DF812109DF862
:101A600018108DF8131003A802F09EF900BFBDE70F
:101A7000163500201835002030B585B01421684691
:101A8000FDF7F3FC2D48009001208DF804000020A4
:101A900002902B4800788DF80C0000BF9DF80D00D7
:101AA00020F00F00401C8DF80D009DF80D0020F077
:101AB000F00010308DF80D0000BF00BF9DF80E0043
:101AC00020F00F00401C8DF80E009DF80E0020F055
:101AD000F00010308DF80E0000BF00BF9DF80F0021
:101AE00020F00F018DF80F109DF80F0020F0F0018D
:101AF0008DF80F1000BF00BF9DF8100020F00F0000
:101B0000401C8DF810009DF8100020F0F0001030FF
:101B10008DF8100000BF69460A4800F026FB044615
:101B200000BF25463DB100BF07A240F291412846C3
:101B3000FFF780FB00BF00BF05B030BD558A020033
:101B400032330020943700202E2E5C2E2E5C2E2E59
:101B50005C6D61696E2E6300F0B591B004460D4670
:101B6000207DD8B10020099000BF9DF8240020F00E
:101B70000F00401C8DF824009DF8240020F0F00098
:101B800010308DF8240000BF687B8DF825009DF88B
:101B9000260020F00600801C8DF826001C210AA8D3
:101BA000FDF763FC9DF8280020F00200801C8DF8F2
:101BB0002800207D08B1012000E000209DF82810B9
:101BC00060F304118DF8281000200B900D900E90FA
:101BD000207D08B109A800E000200F90002010909F
:101BE00000BF01208DF80E0042F61920ADF80C0060
:101BF00000BF00200290A87B8DF80800E87B8DF8DC
:101C000009009DF80A0020F00600801C8DF80A00EB
:101C10009DF80A0020F008008DF80A009DF80A00DF
:101C200020F010008DF80A009DF80A0020F0010055
:101C30008DF80A00287B0190142104A8FDF715FCFB
:101C400003A8049002A805900120ADF81800002018
:101C5000ADF81A000120ADF81C0001A80890A0887A
:101C6000A31D04AA0AA9A2DF064616B1304611B088
:101C7000F0BDA868002855D000BF01208DF80E00E7
:101C800042F60810ADF80C0000BF00200290287C3E
:101C90008DF8080000BF9DF8090020F00F008DF8B6
:101CA00009009DF8090020F0F0008DF8090000BF40
:101CB0009DF80A0020F00600801C8DF80A009DF8AF
:101CC0000A0020F008008DF80A009DF80A0020F0B4
:101CD00010008DF80A009DF80A0020F001008DF830
:101CE0000A006846A96800F0BFFE0746142104A850
:101CF000FDF7BBFB03A8049002A80590ADF818708F
:101D00000020ADF81A00BDF81800ADF81C00CDF8A1
:101D100020D0E08804F10E0204A9A3DF06461EB11C
:101D20003046A4E70020E0810020A0E72DE9F04143
:101D300092B080460D461F2011901090B8F1000F10
:101D400017D04046FFF7BCF8044600BF1CB1204640
:101D500012B0BDE8F08100BF11AA08A94046FEF705
:101D6000C9FF044600BF0CB12046F1E700BF08AE32
:101D700002E0002600201190ADB128460BF093F947
:101D8000044600BF0CB12046E2E700BF10AA694636
:101D90002846FEF7AFFF044600BF0CB12046D7E748
:101DA00000BF6F4602E0002700201090BDF8400001
:101DB000C3B2BDF84400C1B23A46304672DFC7E74D
:101DC0002DE9F04704460F4615461E46DDF82080F3
:101DD00004B115B90E20BDE8F0870120484908700C
:101DE000002048490870202229464748FDF724FB77
:101DF000464806604648C0F800804FF6FF704549E7
:101E00000880454800210160818081713C21434860
:101E1000FDF72BFB207841490870A0788870E078A6
:101E2000C87060784870D4E90402C1E90402084629
:101E3000D4E90212C0E90212D4E90612C0E906127E
:101E4000606AD8B136483549486236498160606A6F
:101E500000883249496A0880606A80882F49496A47
:101E60008880002005E0616A8968095C2D4A115468
:101E7000401C2A49496A89888142F4D8A06A20B363
:101E800029492A4881602549886227492348806A70
:101E90008160A06A80882149896A8880A06A008858
:101EA0001E49896A0880002005E0A16A8968095CEA
:101EB0001D4A1154401C1949896A89888142F4D805
:101EC00094F82C00154981F82C00206A58B1184864
:101ED00012490862206A4088096A4880206A00889E
:101EE0000E49096A0880606810B10C496068486052
:101EF00039460A48FFF71AFF814648466BE700005B
:101F0000983400209B340020104E0020AC34002078
:101F1000B0340020A83400209C340020304E002033
:101F20006C4E0020784E0020A44E0020984E0020D9
:101F3000A434002070B50546022D02D0032D15D122
:101F400000E000BF0B48007878B100200949087014
:101F50000948007800F014F8044634B107480068D6
:101F600018B1204605490968884700E000BF00BF56
:101F700070BD0000993400209B340020B034002054
:101F80007FB505464D48007810B9082004B070BDF3
:101F90004B48057002F002FD20B10120494908704C
:101FA0000020F3E7484800210160818081714748A3
:101FB000407818B14248007801280DD04348807815
:101FC00018B13F480078012806D04048807888B191
:101FD0003B48007802280DD13D48006838B1012007
:101FE0003C49087008203A490968884702E0002007
:101FF000384908702846FEF733FF314908703448E5
:102000000068C0B108460078032803D0084600786D
:10201000042810D12D48007868B12F48007850B9B5
:1020200000202E49087001202D49087007202849FA
:102030000968884702E000202949087000200090C4
:102040000190029003908DF800008DF808001C4864
:10205000007805281CD2DFE800F01703080D1200F5
:1020600068460AF03BFB044613E068460AF046FB6C
:1020700004460EE068460AF057FB044609E068464D
:102080000AF082FB044604E000201649087000E0D4
:1020900000BF00BF0A48007828B1684673DF0446D5
:1020A0000CB1204672E70A48006820B10D4800785C
:1020B000074909688847002068E700009834002035
:1020C0009B340020993400209C340020104E0020C6
:1020D000AC340020A3340020B4340020B6340020F7
:1020E000B53400209A34002033B587B0044614B9C3
:1020F0000E2009B030BD002500200590069001207B
:10210000ADF814000020ADF8160008A80690E1888C
:10211000608A05AAA4DF05461DB99DF82000207439
:1021200001E02846E5E7608A4FF6FF71884219D042
:10213000207DB8B100200190029003900490E088C7
:10214000ADF8040001208DF80600BDF81600ADF8CA
:10215000080005A8039006980490608A01A9A6DFEC
:10216000054600E008252846C3E7F8B504460D46B5
:1021700004B10DB90E20F8BD286820604FF6FF703D
:10218000608228792075FF20207400BF01208DF81F
:10219000020041F60F00ADF8000000BF221D6946A5
:1021A0000120A0DF06460EB13046E4E7294620466E
:1021B000FFF7D2FCDFE770B505460C4605B104B960
:1021C00070BD2088102804D0112807D050280FD1C6
:1021D00009E02146284606F061FD0AE0214628462E
:1021E00006F082FD05E02146284606F011FE00E0DB
:1021F00000BF00BF00BFE3E770B505461C222946BB
:102200001248FDF719F9002011490870286850B1EB
:10221000104829680A680260496841607ADF04460C
:102220003CB1204670BD0B487BDF04460CB1204614
:10223000F8E74FF6FF70084908800020074908704A
:10224000074A00210748FFF7BFF8EBE7C44E00201C
:10225000CC340020B8340020C2340020C034002028
:1022600029E90200F0F3020010B504462088102886
:1022700006D0112808D012280ED0502810D107E01F
:10228000204606F0EFFC0CE0204606F00DFD08E0CD
:10229000204606F097FD04E0204606F0D7FC00E05B
:1022A00000BF00BF10BD000010B504460348027D0A
:1022B000011D204609F019FF10BD0000004F00204D
:1022C00010B504460348C17D2246001D09F0F6FE04
:1022D00010BD0000004F002010B504460348017EE9
:1022E0002246001D09F0EAFE10BD0000004F00204C
:1022F00070B504462088102804D011281FD01A2851
:1023000042D120E009F0EEFAA08809F063F930B973
:1023100000BF1EA2E1210420FEF78CFF0EE0E07B4F
:10232000022801D1012000E000200546A2882B46AA
:102330002549A1F1120009F0F9FE00BF24E0A088B0
:1023400009F0F2FA20E0207A0121B1EB101F01DA46
:10235000012000E000200346A2881B49491CA1F18E
:10236000130009F0E3FE207A0221B1EB101F01DA1D
:10237000012000E000200346A2881349891CA1F136
:10238000140009F0D3FE00BF00BF70BD2E2E5C2EDE
:102390002E5C2E2E5C2E2E5C2E2E5C2E2E5C636F01
:1023A0006D706F6E656E74735C626C655C636F6D8F
:1023B0006D6F6E5C626C655F636F6E6E5F73746190
:1023C00074652E6300000000164F002070B50446AF
:1023D00000250B48017D2246001D09F06FFE60B10B
:1023E0000748817D2246001D09F068FE06460EB1B1
:1023F000022000E00120054600BF284670BD000015
:10240000004F002010B500240AE020460CF028FB05
:1024100020B920460CF01AFB204610BD601CC4B247
:10242000182CF2DB1820F8E710B5044620460CF013
:1024300017FB10B10248005D10BD0020FCE7000052
:10244000194F002070B505460C4620460CF008FBDD
:1024500030B10448015D2A46153809F02FFE70BDE1
:102460000020FCE7194F002070B505460C461646C3
:1024700020460CF0F5FA30B10348011933462A46DC
:10248000153809F053FE70BD194F0020F8B5044609
:102490000E464FF6FF70E08530686063002084F8D8
:1024A000300084F8310020788DF802006088ADF8A3
:1024B0000000221D69460120A0DF05460DB1284617
:1024C000F8BD3146204600F033FF05460DB12846E1
:1024D000F6E73146204600F047FA05460DB128469A
:1024E000EEE73146204604F0D7FC05460DB12846FC
:1024F000E6E70F480078012807D131462046FEF76D
:10250000E1FD05468DB12846DAE709480078032841
:1025100003D007480078022807D131462046FDF74E
:10252000BBFB05460DB12846CAE70020C8E70000FE
:102530003133002038B505460C4605B104B938BD25
:102540002088022815D0102804D0112807D0502840
:1025500014D109E02146284606F0A3FB0FE02146EE
:10256000284606F0C5FB0AE02146284606F070FC26
:1025700005E0A088034967DF009000E000BF00BFCE
:1025800000BFDCE76C3300202DE9FF4184B0044636
:1025900088461D4600BF1CB90E2008B0BDE8F0817A
:1025A00000BF25B994F830604FF4007710E0012D9A
:1025B00003D194F8316014270AE0022D03D194F876
:1025C0003260142704E0032D02D194F833601427FD
:1025D000E08D4FF6FF71884200D00EB90820DCE78D
:1025E000BDF81800B84201DD0720D6E700200090B2
:1025F0000190029003901DB9E088ADF8000010E052
:10260000012D03D1E08AADF800000AE0022D03D1CC
:10261000E08BADF8000004E0032D02D1E08CADF8B2
:102620000000CDF80C8006A8029001208DF8020071
:10263000E08D6946A6DFB0E730B5024613880B701F
:102640001C0A4C700224204695780446401C0D5507
:10265000D5780446401C0D5515790446401C0D558F
:1026600055790446401C0D5595790446401C0D557E
:1026700030BD2DE9FC4105460C461746208809303F
:10268000B84202D90C20BDE8FC8168466DDF0646E1
:1026900000BF0EB13046F6E700BF0820218868541D
:1026A0002088401C20801B20218868542088401CE2
:1026B000208020882844DDF801100160BDF8051055
:1026C00081802088801D20809DF80000400818B976
:1026D00000202188685402E0012021886854208865
:1026E000401C20800020CEE77FB5044600BF0120BB
:1026F0008DF80E0041F60A00ADF80C0000BF564AF6
:1027000003A90120A0DF054615B1284604B070BD1D
:10271000208800280DDD51480090228804F13C03F8
:1027200042F62920616800F011FB05460DB12846EC
:10273000ECE7208900280DDD49480090228904F14A
:102740003C0342F62420E16800F000FB05460DB191
:102750002846DBE7208A00280DDD42480090228AC7
:1027600004F13C0342F62520616900F0EFFA0546CA
:102770000DB12846CAE7208B00280DDD3A480090AD
:10278000228B04F13C0342F62720E16900F0DEFAD7
:1027900005460DB12846B9E7208C00280DDD3348E9
:1027A0000090228C04F13C0342F62620616A00F07E
:1027B000CDFA05460DB12846A8E7208D00280DDD8D
:1027C0002B480090228D04F13C0342F62820E16A58
:1027D00000F0BCFA05460DB1284697E7206B90B192
:1027E00001A8216B0AF088FC224804F13C0308226E
:1027F00001A9009042F6232000F0A8FA05460DB189
:10280000284683E700BF606B70B11B480090606B87
:10281000027904F13C03016842F62A2000F096FA9E
:1028200005460DB1284671E7A06B90B101A8A16BD8
:1028300008F04AF8114804F13C03072201A900906E
:1028400042F6502000F082FA05460DB128465DE7B9
:1028500000BF00205AE70000AC350020AE35002054
:10286000B6350020BE350020C6350020CE3500200C
:10287000D6350020DE350020E6350020EE3500207C
:1028800010B504462046FFF733FD204607F0E0FD73
:102890002046FFF7E9FC21460648FFF78CFC21465D
:1028A0000548FFF747FE204600F09AF9204606F05B
:1028B000DBF810BD943700203C370020F8B5044603
:1028C0000E46306820604FF6FF70E082B07A2076C6
:1028D00000BF01208DF8020041F60900ADF80000AC
:1028E00000BF221D69460120A0DF05460DB1284624
:1028F000F8BD3146204602F0FFFF05460DB12846DF
:10290000F6E70020F4E7F0B58BB004460F46E08A06
:102910004FF6FF71884223D006AA3946204603F0BD
:102920006BF80646059600200190029003900490F3
:10293000E088ADF8040002208DF806000020ADF814
:10294000080005A8039006A80490E08A01A9A6DF64
:10295000054625B9BDF81400B04200D00C2500E0B2
:10296000082528460BB0F0BD70B58EB004460E4663
:102970001C2107A8FCF779FD9DF81C0020F002003F
:10298000801C8DF81C001220ADF82400ADF8260044
:102990002A48089000200A900B900C900D9000900F
:1029A00000BF9DF8000020F00F00401C8DF80000D3
:1029B0009DF8000020F0F00010308DF8000000BFFE
:1029C0009DF8020020F00600801C8DF802009DF8A2
:1029D000020020F008008DF802009DF8020020F0AF
:1029E00010008DF802009DF8020020F00100401C4C
:1029F0008DF8020001208DF806004FF6F170ADF859
:102A00000400142102A8FCF730FD01A80290CDF8C3
:102A10000CD00720ADF810000020ADF812001420F3
:102A2000ADF8140006480690A08804F10E0302AA2F
:102A300007A9A2DF054628460EB070BD4735002025
:102A40005935002070B504460D462846FCF722FD96
:102A50002080656070BD70B5044620460BF025FFF0
:102A6000054605F0010070BD2DE9F04105460E4612
:102A7000002432782146641C6A5472782146641C12
:102A80006A5400BF022C01D1012000E0002007465B
:102A900037B900BF04A248210020FEF7CBFB00BFDE
:102AA00000BF2046BDE8F0812E2E5C2E2E5C2E2E1F
:102AB0005C2E2E5C2E2E5C2E2E5C636F6D706F6E06
:102AC000656E74735C626C655C636F6D6D6F6E5C7C
:102AD000626C655F7372765F636F6D6D6F6E2E6390
:102AE0000000000070B588B000208DF81C008DF843
:102AF0001F0010208DF81D0002208DF81E0000BF61
:102B0000002350222C4907A80AF0B8F9054600BF57
:102B10002E463EB100BF29A240F271613046FEF759
:102B200089FB00BF00BF00BF6A46012100200AF0F8
:102B300083F9044600BF25463DB100BF1FA240F205
:102B400077612846FEF776FB00BF00BF1720ADF87F
:102B5000100068460AF05CF9044600BF25463DB106
:102B600000BF16A240F281612846FEF763FB00BF5A
:102B700000BF16480AF040F9044600BF25463DB1A3
:102B800000BF0EA240F285612846FEF753FB00BF4E
:102B900000BF0F480AF0C6F9044600BF25463DB104
:102BA00000BF06A240F289612846FEF743FB00BF42
:102BB00000BF08B070BD0000384200202E2E5C2EF1
:102BC0002E5C2E2E5C6D61696E2E630081280200E2
:102BD000E7D0020001460148405C7047EEF3020076
:102BE00070B505462888102802D011282CD115E090
:102BF0001748006860B900F04BFB044600BF34B1D1
:102C00001448006818B1204612490968884700BF77
:102C10000F480068401C0E49086016E00C48006828
:102C2000401E0B4908600846006860B9FEF751F97C
:102C3000044600BF34B10748006818B12046054972
:102C40000968884700BF00E000BF00BF70BD0000FA
:102C5000943400209034002010B5002000F042F899
:102C6000044600BF1CB1062C01D0204610BD00BF99
:102C7000012000F037F8044600BF1CB1062C01D03B
:102C80002046F3E700BF0020F0E7000030B5034620
:102C900000201BBB012A07D1012903D103F10E0437
:102CA000E4B200E00024224679B1012902D00229D1
:102CB00011D104E003EB4304094D2A550DE003EB69
:102CC0004304074D2C44627007E003EB4304044DBA
:102CD0002C44A27001E0072000BF00E0072030BDB7
:102CE0008834002070B504462046FFF773FF054680
:102CF000032105F093FC002070BD10B51C2005F0E9
:102D0000CAFC10BD10B51C2005F0FEFC10BD01462C
:102D10008879012809D10879012806D1488842F626
:102D20000212904201D1012070470020FCE7000010
:102D30000146024850F82100704700002C5800203E
:102D400001460148405670475C5800202DE9F04389
:102D50008FB007460D4614461E46DDF8588000BF6A
:102D60000DB1012000E000208146B9F1000F06D12D
:102D700000BF35A288210020FEF75CFA00BF00BF2B
:102D800000BF002C01DD012000E000208146B9F1E8
:102D9000000F06D100BF2CA289210020FEF74AFABD
:102DA00000BF00BF1C2107A8FCF75FFB9DF81C00BB
:102DB00020F00200801C8DF81C00002008900A9072
:102DC0000B900C900D9000BF01208DF83A00ADF8EB
:102DD000387000BF0020019030788DF804007078C2
:102DE0008DF805009DF8060020F00600801C8DF887
:102DF00006009DF8060020F008008DF806009DF8FA
:102E0000060020F010008DF806009DF8060020F066
:102E100001008DF80600142102A8FCF726FB0EA87D
:102E2000029001A80390ADF810400020ADF8120008
:102E3000ADF814400695434602AA07A91248008837
:102E4000A2DF0FB0BDE8F0832E2E5C2E2E5C2E2E5E
:102E50005C2E2E5C2E2E5C2E2E5C636F6D706F6E62
:102E6000656E74735C626C655C626C655F736572E1
:102E700076696365735C626C655F6469735C626CE0
:102E8000655F6469732E6300AC350020014639B17B
:102E90000448884204D80448884201D90120704778
:102EA0000020FCE79C360020BC36002070B50546AB
:102EB0000E46002407E055F8340003F0E3F908B9A2
:102EC000002070BD641CB442F5D30120F9E7000076
:102ED0000A49496C81B10949096C084A02EBC101F0
:102EE0000160114691F84010491C01F0070111647E
:102EF0001146496C491E516470470000145A002065
:102F0000064902688A4203D00168083101607047AF
:102F100002493839016000BFF9E700004C5A00202F
:102F20000178022902D0017803290BD106490A6CE5
:102F3000817D1144044A116411464A6C817D511A05
:102F4000014A516470470000145A00202DE9F041F5
:102F500004460D464FF6FF76304684420AD14FF4C0
:102F60008071284607F02EFA0646B6F5807F0FD10D
:102F700026460DE0FF2C0BDC2146284607F012FA0E
:102F800007460FB1204601E04FF6FF70064600BF2E
:102F90003046BDE8F081000070B505460DB9094C1A
:102FA00001E0084C083409E0204603F073F90646B6
:102FB00006B904E028467168884700BFF4E700BFFF
:102FC00070BD0000205800202DE9F04782461F48C0
:102FD0000068002836D01D480068056808F0E8FC45
:102FE00007461B480468214638460AF0ABF9C61C60
:102FF0001848007808B908F0EDFCAE4201D2284626
:1030000000E03046044424F07F44204608F0CAFC27
:1030100008F0CEFC8046394640460AF093F900F1AC
:103020000309394620460AF08DF9814509D908F08F
:10303000BFFC814608F0B6FC2F2004F097F90AF097
:1030400025FB01E008F0E4FCBDE8F087283600200D
:103050002C3600204036002001460888062808DB70
:103060000888B0F5486F06DD08884FF6FF72904279
:1030700001D0072070474888062808DB4888B0F54B
:10308000486F06DD48884FF6FF72904201D0072056
:10309000F0E708884FF6FF72904208D048889042C7
:1030A00005D008884A88904201DD0720E2E7002029
:1030B000E0E72DE9F04106460D4614469846208883
:1030C000801D404502D90C20BDE8F0813046FFF755
:1030D000C3FF074600BF0FB13846F5E700BF052024
:1030E000218868542088401C208012202188685440
:1030F0002088401C20802288511930880BF0DBFB8F
:103100002188084420802288511970880BF0D3FB55
:103110002188084420800020D6E7000010B504462E
:1031200000BF04A240F22D512046FEF783F800BFF5
:1031300010BD00002E2E5C2E2E5C2E2E5C6D616963
:103140006E2E630030B587B01C216846FCF78DF900
:10315000002000904FF4203001904FF47020029036
:1031600003208DF80C000020ADF80E0001208DF832
:103170001000002005900A4806906846FFF73CF8CA
:10318000044600BF25463DB100BF06A240F24451AF
:103190002846FEF74FF800BF00BF07B030BD000063
:1031A0001D3102002E2E5C2E2E5C2E2E5C6D616970
:1031B0006E2E630038B51B4803F038F820BB1A4860
:1031C000007848B119484069E8B1002000901748DC
:1031D00041696846884716E01548007810B91348D9
:1031E000456801E0114885680022294611480068B9
:1031F000FEF74EF9044634B10C48806918B10B480B
:1032000081692046884709E00848406930B10120BB
:103210000090064841696846884700BF002002497F
:10322000087038BDC4340020CC340020C44E0020C7
:10323000C0340020F0F302003EB504462088FFF7BA
:103240003FF8D0B1208810490978FFF7FBF828B97A
:10325000208800220D490978FFF706F92088ADF88B
:10326000020005208DF800002088FFF735F88DF862
:103270000400684600F098FD05E02088012241F234
:10328000060100F0C3FB3EBD1735002016350020B7
:1032900010B5012200210846FFF7F8FC044600BFE4
:1032A0001CB1072C01D0204610BD00BF072202210F
:1032B0000120FFF7EBFC044600BF1CB1072C01D036
:1032C0002046F1E700BF042202210020FFF7DEFCC8
:1032D000044600BF1CB1072C01D02046E4E700BF24
:1032E0000020E1E7F0B503460C4612B94FF0FF307D
:1032F00001E01068C0430146002012E01D5C6940F7
:1033000008250BE001F0010616B14FF0FF3600E092
:103310000026064F3E4086EA51016D1E002DF1D178
:10332000401CA042EAD3C843F0BD00002083B8EDA2
:1033300070B590B004460E460020089000BF9DF87E
:10334000200020F00F00401C8DF820009DF8200088
:1033500020F0F00010308DF8200000BF00BF9DF875
:10336000210020F00F00401C8DF821009DF8210065
:1033700020F0F00010308DF8210000BF9DF82200F1
:1033800020F00600801C8DF822001C2109A8FCF703
:103390006CF89DF8240020F0080008308DF8240017
:1033A0009DF8240020F0100010308DF82400122029
:1033B000ADF82C00ADF82E0033480A9000200C9098
:1033C0000D9008A80E9000200F90019000BF9DF86E
:1033D000040020F00F00401C8DF804009DF804004C
:1033E00020F0F00010308DF8040000BF00BF9DF801
:1033F000050020F00F00401C8DF805009DF8050029
:1034000020F0F00010308DF8050000BF9DF8060098
:1034100020F00600801C8DF806009DF8060020F0C4
:1034200008008DF806009DF8060020F010008DF8C9
:1034300006009DF8060020F00100401C8DF80600F3
:1034400001208DF80A004FF6F070ADF80800142145
:1034500003A8FCF70AF802A8039001A80490012031
:10346000ADF814000020ADF816004FF40070ADF870
:10347000180006480790A088A31D03AA09A9A2DF87
:103480000546284610B070BD343500204635002072
:1034900038B5002000900D4800900D4880780D4907
:1034A00008700B480088488069460A48FEF7EEFF1E
:1034B000044600BF25463DB100BF07A240F2EC41E3
:1034C0002846FDF7B7FE00BF00BF38BDD1A90200F6
:1034D000403300203C3700202E2E5C2E2E5C2E2EFA
:1034E0005C6D61696E2E630010B504468F480068FC
:1034F000401C8E4908608E480068401C8C4908605A
:103500008C480068642805D28A480068401C8949B4
:10351000086005E00120884908700020854908609E
:103520008648007860B186480088401E844908803B
:103530000846008820B901F01BFC00207F49087074
:10354000804890F80301F0B17E4890F80201401CD9
:103550007C4981F80201084690F80201022812DB3A
:10356000002081F8030181F80201084600784870C4
:1035700008460AF04BF90020724908704FF4827136
:103580007048FBF772FF7048007868B36F480068B6
:1035900028B16E480068401E6C49086032E06C48F3
:1035A000007801280ED16B4890F8200020F04000F0
:1035B000684981F8200074DF142003F03FFD01F01A
:1035C00025FC1FE06448006820280ED1614890F86F
:1035D000200020F040005F4981F8200074DF1420B3
:1035E00003F02CFD01F012FC0CE05B480068F328AE
:1035F00008D104205949087074DF00205849087028
:10360000514908704A48006805281AD3554800797E
:10361000FF2808D053480079002804DD514800797C
:10362000401E50490871504890F8070230B14E488A
:1036300090F80702401E4C4981F8070200203C49DF
:1036400008603A48006805286ED348480078401C56
:1036500046490870084600780A2190FBF1F201FB08
:103660001200424908703F48407848B1012804D010
:10367000022808D0032823D10FE00BF0BAFC20E089
:103680000BF0B2FC1DE039480078052802DB0BF096
:10369000B0FC01E00BF0A8FC13E00BF0AAFC3448EE
:1036A0000078401C32490870084600780A2806DD78
:1036B0000BF09AFC00202B4948702D49087000E05F
:1036C00000BF00BF2748807848B1012804D00228F5
:1036D00008D0032823D10FE0FFF714FB20E0FFF709
:1036E0000CFB1DE021480078052802DBFFF70AFBF0
:1036F00001E0FFF702FB13E0FFF704FB1C48007832
:10370000401C1B490870084600780A2806DDFFF7B0
:10371000F4FA0020134988701549087000E000BFD2
:1037200000BF00200149086010BD00007C3300206C
:1037300080330020583300205C33002062330020A7
:1037400060330020E8450020513300204C33002036
:1037500031330020E437002044330020553300206B
:103760005033002092450020884200207A33002008
:103770007B33002010B564244FF47A7114FB01F000
:1037800003F0A6FD00BFFDF7DBFD10BD70B50646DA
:103790000D460EB1012070BD287920B1012809D055
:1037A000022813D10FE0284607F07EFF04460220CE
:1037B00028710DE0284600F09DFD04460A2C01D139
:1037C00041F61D5404E041F61D5401E00F2400BFF2
:1037D00000BF2046DFE7000070B505460C4614B96F
:1037E0000020054908700548006820B12146284698
:1037F000024A1268904770BDF8350020FC35002061
:1038000030B597B0402106A8FBF72FFE4C4908A819
:10381000FFF718F94A4918310AA8FFF713F949A127
:103820000EA8FFF70FF94EA10CA8FFF70BF94449BA
:10383000383910A8FFF706F94149583906A8FFF7AB
:1038400001F93F487C3890F868008DF800003C484A
:103850007C3890F867008DF8010039487C3890F882
:1038600066008DF8020036487C3890F865008DF8C7
:10387000030033487C3890F864008DF80400304829
:103880007C3890F869008DF80500002002900390C4
:1038900000BF10E0DDE90221090241EA12611202D3
:1038A000CDE902211DF80030DDE902121943CDE90E
:1038B0000212411CC8B20528ECDB0020049000BFB6
:1038C0000AE0049909020491421D1DF8022004999E
:1038D00011430491411CC8B20128F2DB02A81290E6
:1038E00000BF9DF8540020F00F00401C8DF85400DC
:1038F0009DF8540020F0F00010308DF8540000BF07
:1039000000BF9DF8550020F00F018DF855109DF86F
:10391000550020F0F0018DF8551000BF06A8FEF705
:10392000E3FE044600BF25463DB100BF11A240F2B0
:10393000DB412846FDF77EFC00BF00BF17B030BD5D
:10394000603800204E42542D4D422D3030325F41C0
:1039500032305F4230322056312E32302E3100006C
:103960004E42542D4D422D3030325F413230205680
:10397000302E32002E2E5C2E2E5C2E2E5C6D616958
:103980006E2E630070B5044620793D2802D141F2C5
:103990003D0001E04FF4885005462088002229466A
:1039A00002F038FE70BD0000014614480078144A49
:1039B000127890421DD011480078401C0F4A1070B8
:1039C00010460078022801D1002010700D480B4AE3
:1039D000127850F8220008600B4A086812681044F8
:1039E000094A10601046006820F07F4010600120F6
:1039F00070470020086000BFFAE70000383600205A
:103A000039360020303600202C360020FEB5044622
:103A10000D461646094A07CA8DE80700ADF8024070
:103A2000ADF804508DF80660002205480178204664
:103A3000FEF71AFD684600F0B7F9FEBD64F4020017
:103A40001635002010B50446A08928DF10BD0000FF
:103A500013480078062820D11148001D007800F096
:103A60000F00D0B90E480830007800F0F000302880
:103A700001D1012070470A480830007800F0F000BA
:103A8000402801D10120F5E705480830007800F012
:103A9000F000502801D10120ECE70020EAE7000007
:103AA000E00F00F00A48007806280ED10848001DF3
:103AB000007800F00F0040B905480830007800F0A9
:103AC000F000302801D1012070470020FCE7000001
:103AD000E00F00F013480078062820D11148001D9F
:103AE000007800F00F00D0B90E480830007800F0E0
:103AF000F000302801D1012070470A4808300078D2
:103B000000F0F000402801D10120F5E70548083019
:103B1000007800F0F000502801D10120ECE70020EF
:103B2000EAE70000E00F00F00A48007806280ED10E
:103B30000848001D007800F00F0040B90548083023
:103B4000007800F0F000302801D1012070470020FB
:103B5000FCE70000E00F00F013480078062820D1B1
:103B60001148001D007800F00F00D0B90E48083051
:103B7000007800F0F000302801D1012070470A4899
:103B80000830007800F0F000402801D10120F5E76E
:103B900005480830007800F0F000502801D10120DD
:103BA000ECE70020EAE70000E00F00F00A480078A8
:103BB00006280ED10848001D007800F00F0040B91B
:103BC00005480830007800F0F000302801D10120CD
:103BD00070470020FCE70000E00F00F00A48007882
:103BE00006280ED10848001D007800F00F0040B9EB
:103BF00005480830007800F0F000302801D101209D
:103C000070470020FCE70000E00F00F00A48007851
:103C100006280ED10848001D007800F00F0040B9BA
:103C200005480830007800F0F000502801D101204C
:103C300070470020FCE70000E00F00F00278072A40
:103C400034D2DFE802F033040710202930000022CC
:103C50000A702CE001220A7003898B818388CB8152
:103C6000C2688A6023E002220A7003898B818388FC
:103C7000CB81C2688A60027C062A01D1012300E060
:103C800000230B7413E003220A70C3888B8103891D
:103C9000CB81C2688A600AE004220A70C3888B81E3
:103CA0000023CB8103E005220A7000E000BF00BFC3
:103CB0007047000070B50546002409E0064850F83A
:103CC000240020B1044850F8241028468847641C7A
:103CD000082CF3D370BD00007C5900203EB505468A
:103CE0000C46DCB1112C19D00020009001900290FC
:103CF000ADF8025001940D2C03D10B208DF800007B
:103D000008E0862C03D10A208DF8000002E009208B
:103D10008DF80000684600F057F800BF3EBD000077
:103D200070B50546002405E0044850F824102846E4
:103D30008847641C002CF7D070BD0000D0340020F0
:103D400070B50546002405E0044850F824102846C4
:103D50008847641C002CF7D070BD0000DC340020C4
:103D600070B50546002405E0044850F824102846A4
:103D70008847641C022CF7D370BD00000CF40200CD
:103D800070B50546002405E0054850F82410284683
:103D90008847641C034800788442F5DB70BD00004E
:103DA000145300201235002070B50546002405E0AC
:103DB000044850F8241028468847641C022CF7D386
:103DC00070BD00002CF4020070B50546002405E02B
:103DD000044850F8241028468847641C002CF7D06B
:103DE00070BD000070F40200F0B5034600241FE02F
:103DF000124E306806689E4203D90668F61A0660BD
:103E00001AE006689B1B06683444002606600B4EC9
:103E100035680A4FC6693E60C66846B10E1926F07D
:103E20007F464660C66886601668C661156000BF3A
:103E3000024800680028DBD100BFF0BD2836002012
:103E40001FB50446606808B9012000E00020039017
:103E5000207806287BD2DFE800F0820304304F7B15
:103E600000BFA08900F065FA18B9E08907F02DFDC0
:103E700010B3A08900F058FAADF80200E08907F00D
:103E800021FD8DF804002078012807D1606808B969
:103E9000002000E003208DF8000006E0606808B90B
:103EA000012000E004208DF8000060680390A06805
:103EB0000290684605F030FD52E0A08900F039FA22
:103EC00018B9E08907F001FDA8B1A08900F02CFA2B
:103ED000ADF80200E08907F0F5FC8DF80400606899
:103EE00008B9022000E005208DF80000A0680290CB
:103EF000684605F011FD33E0A08900F01AFA28B3F6
:103F0000E08918BBA08900F00FFAADF80200E08943
:103F100007F0D8FC8DF80400FF208DF804006068DD
:103F200038B906208DF80000BDF8020005F00CFF3E
:103F300002E007208DF8000000200E4908700E49AD
:103F4000087005F04BFE684605F0E6FC08E006E068
:103F500008208DF80000684605F0DEFC00E000BF98
:103F600000BF0448007820B100200249087005F025
:103F700035FE1FBDED340020EE34002010B588B0B2
:103F80000446022000F08CFC10B9022008B010BDDD
:103F90004FF6FF70844201D10420F7E705208DF829
:103FA000040001208DF80800ADF80A4000221146F7
:103FB00001A804F0D1FF18B107F0EAFA0020E5E704
:103FC0000820E3E700B587B0022000F069FC10B9D3
:103FD000022007B000BD06208DF800000022114627
:103FE000684604F0B9FF48B10548007810B10120D7
:103FF0000349887307F0CCFA0020EAE70820E8E7D5
:104000009C5A002010B58CB0142107A8FBF72DFA9C
:10401000022000F045FC28B107A8FFF74BFE002066
:104020000CB010BD012000F03BFC08B10020F7E708
:10403000012000F041FC00F0A5FD01208DF80000FA
:1040400005F096F804460C2C28D2DFE804F006149C
:1040500007152722092327191E1A00BF0B20DFE7A7
:10406000022000F029FC012000F000FC07A8FFF767
:1040700021FE0020D4E700BF00208DF804000EE0F0
:1040800000BF03208DF8040009E002208DF8040031
:1040900005E000BF01208DF8040000E000BF00BF74
:1040A00000221146684604F057FF07F071FA00201D
:1040B000B6E7000038B504460CB9052038BD69469E
:1040C000204607F00FFBE0B10F48BDF8001000EBF1
:1040D00001108089002812DDA07A80B10A48BDF85D
:1040E000001000EB01108089401E0749BDF8002038
:1040F00001EB021188810020A072002502E0062554
:1041000000E00A252846D9E75C5A00207FB514460E
:104110001D462B46224601A9684607F081FA04B0E5
:1041200070BD37B50C4615462B4622466946002021
:1041300007F076FA3EBD37B50C4615462B462246AB
:104140000021684607F06CFA3EBD024602B109B98B
:1041500005207047106808600020FAE738B504466B
:104160000D4604B10DB9052038BD6946204607F05B
:10417000B9FAA8B161680B48BDF8002000EB021045
:104180008089401C074ABDF8003002EB0312908181
:10419000296060680C3068600120A0720020E3E7AD
:1041A0000A20E1E75C5A002070B504460D460CB9C0
:1041B000052070BD03230022294620460AF0B0FFE7
:1041C000F7E770B504460D46022300222946204633
:1041D0000AF0A6FF70BD70B505460E4614460CB930
:1041E000052070BD02232246314628460AF098FF7A
:1041F000F7E700000146094A1278082A01D10C208D
:104200000AE0074A054B1B7842F82310034A12784C
:10421000521C024B1A7000207047000055360020D7
:104220007C590020F8B504460D46022000F038FB0A
:1042300008B90220F8BD0CB90520FBE769462846FD
:104240000BF05EF806461EB9BDF8000020806580C0
:104250003046EFE770B50446022000F021FB08B9B4
:10426000022070BD0CB90520FBE72088042801DD81
:104270000420F6E720880A4901EB0016718960885E
:10428000C01C081A08D4218860880BF02BF8002085
:1042900020806080002500E004252846E1E700003A
:1042A0005C5A002070B504460D462A46002120467F
:1042B00000F00EF8A068401CA06070BD01468A683E
:1042C000C868801A704701468A68C868801A7047B3
:1042D00010B583680B44848823400468E35C137042
:1042E00010BDC26883881A4003689954C268521C82
:1042F000C26070473EB504460A4B6A460021A01DC5
:1043000007F08EF9054635B9064A9188019807F0FD
:1043100057FA054603E00348002101604160284642
:104320003EBD0000643600200146A1F5404080B249
:1043300070470146B1F5404F05DB4FF6FE708142F4
:1043400001DC012070470020FCE7000010B588B0B8
:104350000020019002901048002180F8201001AB4D
:1043600005AA01210220FFF7D1FE044644B10A4804
:1043700090F8200040F08000074981F8200008E014
:1043800003A905A8FFF7EAFE03480499097880F815
:10439000201008B010BD0000E437002010B588B030
:1043A0000020019002900C480021A0F8781001AB89
:1043B00005AA04210120FFF7A9FE04460CB108B0AC
:1043C00010BD03A905A8FFF7C9FE03480499098891
:1043D000A0F8781000BFF2E7E437002010B500F035
:1043E00039F8FFF7DBFF00F0A7F900F0E7F900F07C
:1043F00007F8FFF7ABFF00F005FA00F053F810BD27
:1044000010B588B000200190029015210E48FBF7EE
:104410002CF801AB05AA05210120FFF777FE044621
:1044200034B109487C3809A206CAC0E91F1208E065
:1044300003A905A8FFF792FE152203480499FAF78D
:10444000FBFF08B010BD0000603800204E576954D3
:104450006F6F6C0010B588B00020019002900D487D
:104460000DA206CAC0E91B1201AB05AA0221012058
:10447000FFF74CFE04460CB108B010BD03A905A817
:10448000FFF76CFE034904980268CA664068086733
:1044900000BFF1E7E43700204E5769546F6F6C207E
:1044A0000000000010B588B00020019002908948FB
:1044B00000210180817001AB05AA03210120FFF7D3
:1044C00025FE0446C4B10020834908701A2283A146
:1044D00080485038FAF7B0FF0020874908708749B4
:1044E0000870032086490870202086490860002053
:1044F0008549086008B010BD03A905A8FFF72EFE86
:104500007449049802880A8080788870A1F1740048
:1045100090F87400502818D004DC00283FD04E28B2
:1045200047D104E0D0281ED0FE2842D129E0002047
:10453000694908704FF6CE20744908801A2267A195
:1045400064485038FAF778FF3DE00120624908706E
:104550004FF6CE206D4908800B226DA15D48503882
:10456000FAF76AFF2FE002205B4908704CF6FE2044
:1045700066490880192269A156485038FAF75CFF4D
:1045800021E00320544908704FF6CE205F4908808F
:10459000192262A14F485038FAF74EFF13E000206D
:1045A0004D4908701A224DA14A485038FAF744FF85
:1045B00000BF0420484908701A2248A145485038D5
:1045C000FAF73AFF00BF00BF4248743890F87610FF
:1045D00090F8750041EA002040F20642811A9042AC
:1045E00043D016DC40F20722A0EB020190423ED0FD
:1045F00009DC00284CD0B0F5837F3AD0A0F2062029
:10460000002854D136E0FF292ED0B1F5807F4ED15D
:104610002EE0B1F5807F29D004DC032908D00E29D3
:1046200045D110E0A1F2031119B10B293FD10BE0E4
:1046300000BF002030490870032030490870042072
:104640002F49087042E000BF03202B490870022068
:104650002A49087003202A490870F3202949086074
:1046600000202949086031E000BF00BF00BF00BF43
:1046700000BF00BF012021490870032020490870B5
:104680004FF420701F49086000201F4908601DE09A
:10469000002019490870194908700320184908704A
:1046A0002020184908600020174908600EE000200B
:1046B0001149087011490870032011490870202021
:1046C0001049086000201049086000BF00BF00BF0B
:1046D00010E7000058380020543300204E6F7274E9
:1046E000687765737420496E737472756D656E7446
:1046F00020496E632E0000009245002031330020D7
:10470000553300204433002048330020403300203C
:10471000506C6F747420496E632E00005374616E88
:104720006C657920426C61636B20616E6420446526
:10473000636B65720000000070B58AB000200190C4
:10474000029001AB07AA01210846FFF7DFFC0646ED
:10475000EEB103A86DDF044600BF25463DB100BFA2
:1047600011A240F6AC012846FCF764FD00BF00BF73
:104770001148DDF80D104166BDF81110A0F8681061
:1047800001231A46062164300AF016F90AE005A949
:1047900007A8FFF7E3FC0849069802684A66808884
:1047A000A1F868000AB070BD2E2E5C2E2E5C2E2E55
:1047B0005C6D61696E2E6300E437002010B588B02F
:1047C0000020019002900E210D48FAF74EFE01AB39
:1047D00005AA06210120FFF799FC04462CB12022EE
:1047E0000E210748FAF73AFE08E003A905A8FFF7EB
:1047F000B5FC0E2202480499FAF71EFE08B010BD5F
:104800007838002010B588B0002001900290202157
:104810000D48FAF72AFE01AB05AA02210846FFF768
:1048200075FC04462CB1202211460748FAF716FE03
:1048300008E003A905A8FFF791FC2022024804998B
:10484000FAF7FAFD08B010BD2838002010B504466C
:10485000A07EFF2802D0A07E03F061FF00206076DA
:104860002071201D2168884710BD00000249097889
:104870008143014A117070475436002010B5044638
:104880002078182802D1FDF7BDFD207010BD10B5AD
:1048900004462078182802D1FDF7B4FD207010BD21
:1048A000014604480078084008B101207047002004
:1048B000FCE7000054360020024909780143014A10
:1048C000117070475436002030B504461088C01C63
:1048D000984201D90C2030BD022015884855108817
:1048E000401C10800120158848551088401C1080FD
:1048F00015884C551088401C10800020EBE7000004
:104900002DE9F04106460C4615460027B846862C90
:1049100003D0112C01D0002C35D1862C03D14FF0BF
:104920000008012709E0112C03D14FF001080027EE
:1049300003E014B94FF000080027C5B13A46134808
:1049400001783046FDF790FD424611480178304627
:10495000FDF78AFD00220F4801783046FDF784FDFF
:1049600000220D4801783046FDF77EFD0BE03A4607
:10497000084801783046FDF777FD42460648017841
:104980003046FDF771FDBDE8F08100002D350020B7
:104990002C350020293500202835002008B5684630
:1049A00000F05AF9009808B1012008BD0020FCE78A
:1049B00070B505460C4644B9044909688888132136
:1049C00076DF012001490968087570BD3035002087
:1049D00001220B4B1A6000BF0A4A1268002AFBD062
:1049E000016000BF074A1268002AFBD00022044B76
:1049F0001A6000BF034A1268002AFBD0704700000B
:104A000004E5014000E4014010B520480078032887
:104A100000D010BD1D480079002835D11C48007811
:104A2000401C1B4908700878C11700EB9171891070
:104A3000A0EB8101164A1170FBF72FFF07F0D4FE9F
:104A4000FBF74EFAFBF7A0FA142010490871042076
:104A500010494870C120087000208870C87008464E
:104A6000C078001D0C49A1F804020846B0F80422E1
:104A7000084900F58270FAF7DFFC0748B0F8041225
:104A800000F58270FBF72EFB00BFC2E792450020C5
:104A90001D340020EC46002088420020F8B5054671
:104AA0000C4616461F461C48007800F0010008B965
:104AB0000120F8BD2846FEF7E9F908B90220F8E719
:104AC0000CB90320F5E7C4F30B0008B10620F0E7AA
:104AD0002868A04204D804EB06306968884201D9EE
:104AE0000520E6E70EB90420E3E7684606F094FCEB
:104AF00008B90720DDE700984760009805600220AC
:104B000000990872C4F30F300099888100980682DA
:104B100006F04AFD0020CCE76E36002070B5054651
:104B20000C46204606F0ACFC70BD000070B5044693
:104B30000D460D48006820F001000B4908602DB9B2
:104B40000846006820F00200086005E0064800689A
:104B500040F0020004490860606818B12946204608
:104B60006268904770BD0000743400204FF0102040
:104B70004169481C08B1084670474FF080504069B1
:104B80000003F9E72DE9F0412B482C49401A0409AC
:104B90002948401A0509FFF7E9FF0646284800782A
:104BA00000F0010010B10020BDE8F081002008E015
:104BB000224A02EB00110A6812B14A6802B16D1E66
:104BC000401CA042F4D300202BE01C4901EB001252
:104BD0004FF0000CC7B2002117E0DFF8608008EB4F
:104BE0000113D3F80080B8F1000F05D0D3F804808A
:104BF000B8F1000F00D007E093F80D80E04502DD2A
:104C000093F80DC0CFB200BF491CA142E5D30B49B8
:104C100001EB07125660117BA6EB0131116016689B
:104C2000401CA842D1D30648007840F00100044956
:104C300008700020B8E70000BC3600209C36002039
:104C40006E3600200348406E042801D101207047D1
:104C50000020FCE7B85A0020014609B9032070473C
:104C60000248406E08600020F9E70000B85A0020B2
:104C70002DE9F84305460C4616461F46DDF8208010
:104C80001F48007800F0010010B90120BDE8F8834A
:104C90002846FEF7FBF808B90220F7E706B10CB981
:104CA0000320F3E706F0030010B904F0030008B195
:104CB0000620EBE72868A04204D804EB8701686867
:104CC000884201D20520E1E70FB90420DEE76846FB
:104CD00006F0A2FB08B90720D8E70098C0F80480C6
:104CE000009805600120009908720098C66000983D
:104CF00004610098878206F057FC0020C6E7000098
:104D00006E36002070B504461748006E00EB400078
:104D1000154901EBC0051548007800F0020068B1A4
:104D2000022C02D0032C08D103E0284604F00EF830
:104D300003E0284603F0F4FF00BF12E00B480078C0
:104D400000F0040068B10948007820F00400074929
:104D500008700548406E20B10846007840F0020017
:104D6000087006F0DFFB70BDB85A00206E360020D8
:104D700010B50C48007898B10B4800884FF6FF71C9
:104D800088420DD00948007803F088FB3B21064893
:104D9000008876DF0A2002F051F9002001490870EE
:104DA00010BD000053330020283300203033002092
